:020000040800F2
:10000000F82F002085740008F5720008F7720008C8
:10001000F9720008FB720008FD7200080000000081
:10002000000000000000000000000000FF72000857
:100030000173000800000000037300080573000846
:10004000A1740008A5740008A9740008AD74000824
:10005000B1740008B5740008B9740008BD740008D4
:10006000C1740008C5740008C9740008CD74000884
:10007000D1740008D5740008D9740008DD74000834
:10008000097300080F730008E1740008E5740008A4
:10009000E9740008ED740008F1740008F5740008B4
:1000A000F9740008FD740008017500080575000862
:1000B000097500080D750008117500081575000810
:1000C000197500081D7500082175000815730008D2
:1000D00025750008297500081B7300082D75000898
:1000E0003175000835750008397500083D75000840
:1000F0004175000845750008497500084D750008F0
:100100000000000051750008557500085975000879
:1001100000000000000000005D7500086175000827
:1001200065750008697500086D750008717500082F
:1001300075750008797500087D75000881750008DF
:1001400085750008897500088D7500082D730008F5
:100150009175000895750008997500089D7500084F
:10016000A1750008A575000800000000000000004F
:10017000000000000000000000000000000000007F
:10018000A9750008AD75000800000000000000001F
:10019000B1750008B57500080000000000000000FF
:1001A000000000000000000000000000000000004F
:1001B000B97500080000000000000000BD750008CF
:1001C000C17500082DE9F04F95B062B601F062F8F4
:1001D00000F076FA00F0D2FA1421684601F094F8A3
:1001E0000020DFF8686BDFF8688BDFF8689BDFF8CA
:1001F000687B05904FF40074316841F00401316070
:100200000021306800F0040000F055FA42F080024E
:100210003260306800F0800000F04DFA42F00102D8
:100220003260306800F0010000F045FA42F002024E
:100230003260306800F002000590059805914EF29A
:100240001B01326842F0080232600022306800F080
:10025000080005900598404601F074F900224FF41B
:100260007041484601F06EF94EF20F0100F018FAA5
:1002700000F01DFA01220192029210210091002249
:10028000039200F014FA40F2044000210090019122
:1002900002914846694601F079F84FF4704100F048
:1002A000FFF96946484601F071F8022101910022E8
:1002B000029203920492009400F0F9F90221019154
:1002C000002202924FF44060032100900391072224
:1002D000049200F0ECF904200021009001910291B9
:1002E0006946DFF8500C01F051F84FF482717960E3
:1002F0003021F9610022DFF8400C38600A21BA6031
:10030000FA603A617A613A627A62BA62F962BC6111
:10031000384601F029F908B100F0AEFF02A800212B
:1003200000220023002480E81E005F20CDE9001297
:1003300007F1AC044FF080456060A1604FF0FF30E2
:10034000E0602161A1612560204601F0FFF908B15C
:1003500000F092FF4FF4805BCDF808B002A9204670
:1003600001F0D1FA08B100F087FF0021009101915E
:100370002046694601F0E0FC08B100F07DFFDFF89F
:10038000BC0BDFF8BC1BB865F9650020386600219E
:100390004FF48040B8667966F96639677967B9675E
:1003A00007F1580001F046FD08B100F065FF00209C
:1003B00000900022316841F4001131600021306862
:1003C000DFF8806B00F4001000900098102002F01D
:1003D0004BFB102002F065FB00220021112002F0EF
:1003E00043FB112002F05DFBDFF85C0BDFF85C1BC8
:1003F000F062316300207063B063F0630C217064BD
:10040000B064316406F12C0002F076FB08B100F014
:1004100033FF02F097FF11A80021002200238C4631
:1004200080E80E10CDE9001202A81C2100F06CFF3C
:10043000202109A800F068FFDFF85CACDFF8100BA2
:10044000CAF800000021CAF80410CAF80810CAF857
:100450001010CAF814104FF6FF70CAF80C00802173
:10046000CAF81810504601F071F908B100F004FF05
:10047000CDF844B011A9504601F045FA08B100F09A
:10048000FBFE504601F0B9F908B100F0F5FE00217D
:10049000009101915046694601F04EFC08B100F010
:1004A000EBFE60200021029003910022059107914C
:1004B00004920692089200F0EFF808B100F0DCFE1A
:1004C000042200F0E9F808B100F0D6FE082200F09E
:1004D000E3F808B100F0D0FE00204FF4005109907D
:1004E0000A900B900C900D900E91109009A9504617
:1004F00001F068FC08B100F0BFFE504602F0DBFFDF
:1005000000F0F8FE00F0F3FE01225946484601F0E3
:1005100019F801220821404601F014F80A2000F0E1
:10052000EAFD0021022003F085F94FF4806148467E
:1005300001F002F80128F8D1052000F04CFE20223D
:1005400006F1840106F12C0002F050FB08B100F026
:1005500093FE204601F007F908B100F08DFE00215E
:10056000504601F090FB08B100F086FE0421504691
:1005700001F089FB08B100F07FFE0821504601F030
:1005800082FB08B100F078FE0220307203F032F9ED
:1005900001E000F097FA7079002818BF0328F8D01E
:1005A000DFF8640CA064012140F6FF702065E1646F
:1005B000F437384603F0FAF908B100F05DFE012087
:1005C00070723EE0306F726F904203D3012904BF16
:1005D00002203072306FA16D884223D3306F6430B7
:1005E000A06500F06FFA1DE0B0F5167F05D101207F
:1005F00003F033FB0020F0677073032003F02DFB42
:10060000306F00F51C501030E06500F0A3FC30792D
:10061000317A0028D6D119B103F0FAF800203072EF
:1006200000F0C6F8F17900291CBF3078002806D008
:1006300000F0CBF8B079FF2818BF00F000FB306F56
:100640006065686A3067384603F0D9F9306FE16D4C
:100650008842DAD3707B58B900F015FB58B90120F5
:100660007073072000F0B7FD002000F0FEF902E0F3
:10067000F06F401CF067F06F0028BED0642838BFD0
:100680000220BBD3B0F5FA7FAED1012000F0EDF926
:10069000052000F0A0FDB0E702A9504601F0D1B856
:1006A0000091012200210291039101927047694655
:1006B000404600F06BBE0590059805913268704782
:1006C00000B593B0342106A800F01EFE142101A845
:1006D00000F01AFE00200090DFF8600B016841F086
:1006E000805101600021006800F080500090009867
:1006F000DFF84C0B00910921026842F4404202608D
:100700004FF48032006800F4404000900098069159
:100710000792012108910122102109920A910B925E
:1007200002214FF480020C910D920C2160220E9157
:100730000F920221042210911192129106A803F047
:100740008DFC08B100F098FD022102910F204FF4BA
:10075000805101900022049103920592032101A887
:1007600003F02AFE08B100F087FD4FF0E0624FF081
:100770008041012003F0A6FE13B000BD00B58FB08C
:100780003C21684600F0C0FD802200920C2102222C
:1007900001910492502002900421002203910D92B5
:1007A000684603F0C5FA08B100F066FD0FB000BD61
:1007B00010B5DFF8904A2078C00705D500F04AFA56
:1007C000207810F0FE00207010BD38B586B0DFF83C
:1007D00074470020E071DFF8705A20782870607844
:1007E0006870A078A870E078E87029786878411877
:1007F000A8784118E878C9B2814240F0348128785D
:1008000012280CD16878002804D1A87850F0100084
:10081000A07128E1A87850F02000A07123E1287889
:10082000012802D16878A0671DE12878022804D148
:10083000A978687802F0FEFF15E1287803281AD11C
:100840006079002817D06079032814D068780028D0
:1008500008D10520607114F1100003F036FA06206B
:10086000607100E10720607115F1140003F02DFAAA
:1008700008206071F7E02878042804D1687850F0E7
:100880003000A071EFE02878052814D1687800289E
:1008900008D100220821DFF8B80400F053FE002040
:1008A0002071E0E001220821DFF8A40400F04AFEF4
:1008B00001202071D7E0287809281AD10020E067AC
:1008C000002060736878002809D1062000F083FCBE
:1008D000002003F0C2F9002000F0C7F8C3E00520B3
:1008E00000F079FC012003F0B8F9012000F0BDF818
:1008F000B9E028780A2804D1687850F05000A07137
:10090000B1E028780B281ED16878002802D1002099
:100910002073A8E001202073002000F0C6F9A87819
:10092000C00702D5022000F0C0F9A878800702D5E0
:10093000042000F0BAF9A878400740F19480032021
:1009400000F0B3F98FE028780D280CD168780028E2
:1009500004D1D120A0710020687184E0D220A07160
:10096000012068717FE028780E2802D103F0A8FEEC
:1009700079E028780F2802D16020A07173E02878F0
:10098000102802D103F02DF96DE02878112802D14A
:100990006120A07167E02878162808D1687868641B
:1009A000696CDFF8A8084143C4F880105BE0287840
:1009B000172807D168786866686E05EB8000806C40
:1009C000A86650E0287818280AD1687805EB8000DE
:1009D000C06E2085A87805EB8000C06F288642E0B5
:1009E0002878062814D16878A073A07B0B2802D140
:1009F0000120E07301E0A07BE073E07B00F07BFB73
:100A0000206F00F5985088306067012020722AE03E
:100A10002878192802D103F002F924E02878622806
:100A20000DD16920A07100F00AF90120E87103A836
:100A30000FF6480191E81C0080E81C0013E02878BC
:100A4000612810D168460FF6400191E82C0080E83B
:100A50002C000A22694614F12C0002F08AF80028C2
:100A600001D000F009FC07B030BD38B50128DFF82F
:100A7000D444B84D0ED101224FF48051284600F0E5
:100A800061FD04F1840104F12C00BDE8384020220E
:100A900002F0ACB804F12C0002F0C0F82846BDE822
:100AA000384000224FF4805100F04CBDDFF8941420
:100AB000C87B401C0022821802F0F802801AC8731A
:100AC000C0B218E338B5DFF87C44207A002804D19E
:100AD00002F0A9FE01202072B0E0207A022818D18D
:100AE0006079002802D06079032805D1DFF8580723
:100AF000807900F0B4F802E0A06F00F0B0F80320B5
:100B00002072216FD4F880004118DFF83C07C163E0
:100B100094E0207A032804D102F0CDFE0520207253
:100B20008CE0207A04280AD1206FDFF81C17C96BEB
:100B3000884204D302F0C3FE052020727EE0207AB2
:100B4000052868D1DFF8005702F0D8FE287128790F
:100B5000032857D1686B2864288FA885688FE8859B
:100B6000607900281AD1A87904EB8000A98D018250
:100B7000A87904EB8000E98D4182A879052807D186
:100B8000092000F0B8FA032060710020A87155E038
:100B9000A879401CA871022020724FE060790328D8
:100BA00022D1A87905EB8000A98D8182A87905EB77
:100BB0008000E98DC182A87905280FD160790028CD
:100BC00005D1092000F097FA0320607136E001207A
:100BD000207200202071042060712FE0A879401C51
:100BE000A8710220207229E0A88D2881E88D6881F3
:100BF000E07BA881206FE881206F000C288206200E
:100C000020721BE0207A062818D1216FD4F88000CA
:100C10004118E96312E0207A06280FD1DFF8300688
:100C200003F03FF8A07B0B2806D1FFF73FFF206FB2
:100C300000F59850883060670120207231BD10B5F2
:100C4000C04C0122A11D04F12C0001F092FFFF21F4
:100C5000A17110BD2021DFF8FC0503F087BDDFF88E
:100C6000F825B84B02EB8000C1681160188D9080A8
:100C7000DFF8D405018ED18000F13401836E138139
:100C8000104602F072BE38B50124DFF8D0554FF49B
:100C90008061304800F050FC28702878002801D18D
:100CA000002004002000C0B232BD10B40100C9B25F
:100CB00000290AD1DFF8E0134FF6FF720B685A6380
:100CC0000B689A630968CA633EE00100C9B2012952
:100CD0000BD1DFF8C41300220B685A6300220B68A3
:100CE0009A6300220968CA632EE00100C9B2022992
:100CF0000BD1DFF8A41300220B685A634FF6FF7282
:100D00000B689A630968CA631EE00100C9B203292F
:100D10000BD1DFF884134FF6FF720B685A63002380
:100D20000C68A3630968CA630EE00100C9B2042914
:100D30000AD1DFF864134FF6FF720B685A630B6831
:100D40009A6300220968CA6310BC704730380240B9
:100D500000080240000402400C28002070B4794AC8
:100D6000116FDFF83433146F996C641A42F210710A
:100D70008C42C0F0DC80D17A332951DA0100C9B24B
:100D800002290AD140F6C414D57AD17A01FB154460
:100D90001A214C4319684C633EE00100C9B2032993
:100DA0000AD140F6C414D57AD17A01FB15441A2130
:100DB0004C4319688C632FE00100C9B204290AD1A1
:100DC00040F6C414D57AD17A01FB15441A214C435C
:100DD0001968CC6320E00100C9B201291CD11A2492
:100DE00040F6C415D67AD17A01FB165565431968C9
:100DF0004D6340F6C415D67AD17A01FB165565438A
:100E000019688D6340F6C415D67AD17A01FB165560
:100E100004FB05F41968CC63D17A491CD1727EE0D9
:100E2000D17A65294BDA0100C9B2022909D1D47AF5
:100E3000323CD17A32394C431A214C4319684C6305
:100E400039E00100C9B2032909D1D47A323CD17A00
:100E500032394C431A214C4319688C632BE0010052
:100E6000C9B2042909D1D47A323CD17A32394C43FF
:100E70001A214C431968CC631DE00100C9B2012955
:100E800019D11A21D47A323CD57A323D6C434C4385
:100E90001D686C63D47A323CD57A323D6C434C4346
:100EA0001D68AC63D47A323CD57A323D6C4301FB89
:100EB00004F11C68E163D17A491CD1722FE0D17A28
:100EC00078292ADA0100C9B2022904D14FF6FF714C
:100ED0001C6861631DE00100C9B2032904D14FF60B
:100EE000FF711C68A16314E00100C9B2042904D198
:100EF0004FF6FF711C68E1630BE00100C9B20129E4
:100F000007D14FF6FF711C6861631C68A1631C6800
:100F1000E163D17A491CD17201E00021D1724FF610
:100F2000FF711C68A1631C68E163116F996470BC58
:100F300070470000000C02400030014000540040A7
:100F4000801A06000000002000440040C0C62D00AA
:100F50000000014010B5DFF80843207B012800F0B5
:100F60009980607A002851D1A07A00281ED1E07AB9
:100F7000002809D10120FFF798FEE07A401CE072BA
:100F8000206F4549886485E0E07A012840F082803E
:100F9000206F216F4048806C091AB248814279D392
:100FA000022000F018F90020E07273E0A07A022815
:100FB00020D1E07A002809D10020FFF776FEE07A00
:100FC000401CE072206F3449886463E0E07A0128B5
:100FD00060D1206F3049226F886C121AA248824279
:100FE00058D3022060720420A0720020E072206FAB
:100FF00088644FE0A07A032802D0A07A072849D15C
:10100000032060720320FFF750FE43E0607A01285E
:1010100023D1A07A052802D10220FFF79FFEA07AF3
:10102000062803D10220FFF740FE33E0A07A04280F
:1010300007D10220FFF739FE022060720020E07223
:1010400028E0A07A032802D0A07A072822D1032022
:1010500060720320FFF729FE1CE0607A022811D19C
:10106000A07A052802D10120607213E0A07A03283B
:1010700002D0A07A07280DD1032060720320FFF769
:1010800014FE07E0607A032804D1A07A052801D174
:101090000120607210BD0000E02A002070B500221F
:1010A00000240025CB0748BF01228B0748BF01243D
:1010B000490748BF01256D4E48B9042100F018F8D2
:1010C0002246022100F014F82A4601210BE04FF4D9
:1010D000004100F00DF822464FF4804100F008F87E
:1010E0002A464FF400513046BDE8704000F02ABA5D
:1010F000304600F027BA10B504002000C0B2012825
:101100000FD067D303281ED014D305282DD023D3A6
:1011100007283CD032D309284BD041D30A2851D0DC
:1011200058E006210020FFF7B9FF05210120FFF755
:10113000B5FF4FE007210020FFF7B0FF0521012098
:10114000FFF7ACFF46E006210020FFF7A7FF0421D0
:101150000120FFF7A3FF3DE007210020FFF79EFFDE
:1011600003210120FFF79AFF34E002210020FFF75E
:1011700095FF04210120FFF791FF2BE001210020C2
:10118000FFF78CFF03210120FFF788FF22E00221F7
:101190000020FFF783FF02210120FFF77FFF19E006
:1011A00001210020FFF77AFF01210120FFF776FFE0
:1011B00010E004210020FFF771FF07210120FFF755
:1011C0006DFF07E005210020FFF768FF06210120E1
:1011D000FFF764FF10BD224988720022CA7270476F
:1011E000F8B504001748017851F00101017020257D
:1011F0001B4810F1840610F1A4072A0031003800C2
:1012000003F0D2FAF1BD00000030004080B518496B
:10121000184B0A784FF47A70B0FBF2F21868B0FB02
:10122000F2F001F049FC08B1012002BD00220E21BC
:101230004FF0FF3001F018FC002002BD40380240A2
:1012400000700040F02B0020C4000020A0860100A8
:10125000CC000020A40000204C0100200803002046
:101260000000002060E3160040420F00000802402A
:10127000740100208001002072B6FEE70102030421
:1012800005060708090A00000A0B0C0D0E0F1011C5
:101290001299000080B51948016841F4007101609D
:1012A000026842F480620260016841F4807101606A
:1012B000032001F0CCFB0F20FFF7A8FF02F06CF831
:1012C000002002BD80B50E484FF0FF3101610022C1
:1012D000026141610023436101600260416043603B
:1012E00081600021816003F06BFA002002BD054897
:1012F000806870470348007870470000003C024057
:101300001038024074010020002203F05BBAF0B4F0
:101310000246106895681318506803EB5004C00724
:1013200048BF4D44A3422DD013F8016B16F00300C3
:1013300004BF13F8010BC01C31090F2907D113F8A2
:10134000011B0F3103E013F8017B05F8017B401E00
:10135000F9D10029E6D013F8010BC6F38106032E5C
:1013600008BF13F8016B00EB06204042284400261A
:10137000B71E8F421EBF10F8017B05F8017B761C5B
:10138000F6D1CFE7F0BC02F10C0070472DE9F84F21
:101390000D4600266D496E4A0F23044601202F6832
:1013A000B04000EA0708804540F0C0804FEA460C94
:1013B000032707FA0CF76FEA070E6F6807F00309B7
:1013C000B9F1010F1CBF07F00307022F12D1A76864
:1013D000D5F80C900EEA070709FA0CF949EA070755
:1013E000A760676827EA00006F68C7F30017B74077
:1013F00038436060B0002F7907F00307032F21D036
:10140000E768D5F808900EEA070709FA0CF949EAE7
:101410000707E7602F7907F00307022F12D1F708BB
:1014200004EB870700F01C09D7F820A003FA09FB9A
:101430002AEA0B0AD5F810B00BFA09F949EA0A09A9
:10144000C7F8209027680EEA070E2F7907F00307E8
:1014500007FA0CF747EA0E0CC4F800C06F6817F4DF
:10146000403F63D04FF0000ECDF800E04FEA960CFD
:10147000176847F48047176000F00C00D2F800E0CE
:10148000344F0EF4804ECDF800E0DDF800E057F860
:101490002CE003FA00F72EEA070E2F4FBC4208BFDC
:1014A00000270ED02D4FBC4208BF012709D02C4F7A
:1014B000BC4208BF022704D02A4FBC420CBF0327FE
:1014C000072707FA00F040EA0E00DFF888E04EF840
:1014D0002C006FEA0800D1F800C06F6800EA0C0C1D
:1014E000FF0348BF48EA0C0CC1F800C0D1F804C0A3
:1014F0006F6800EA0C0CBF0348BF48EA0C0CC1F847
:1015000004C0D1F808C06F6800EA0C0CFF0248BFA5
:1015100048EA0C0CC1F808C0D1F80CC06F6800EAAA
:101520000C00BF0248BF48EA0000C860761C0F2EBE
:101530007FF634AFBDE8F18F0069084018BF012085
:10154000C0B2704702B9090481617047003C014094
:1015500044380240083801400000024000040240C4
:1015600000080240000C024038B5040001D10120FF
:1015700032BD606A30B96068B0F5827F05D0002165
:10158000E16102E00020206160610020A06204F1BE
:101590005005687820B900212970204601F043FFEA
:1015A0000220687000F0CCF86068A168E26800F47E
:1015B000827001F404410843217C02F4006210436C
:1015C000227D01F002010843A16902F001021043EB
:1015D000227F01F40071084394F8201002F03802D1
:1015E0001043A26A01F080010843216802F400520E
:1015F00010430860A06994F824102268000C00F0E1
:10160000040001F01001084350602068C16921F412
:101610000061C161002068600121697032BD7CB544
:10162000044622685168936803F04100012806D1FE
:10163000480604D5216C2046BDE87C400847980741
:1016400006D50D0604D5616C2046BDE87C400847F0
:1016500013F4B07F64D0880662D55D060ED594F889
:10166000510003284FD0606D40F0040060650025F4
:101670000095D66800969568009500989D060ED551
:10168000606D40F001006065002500959268009251
:1016900020680568024625F0400515600098DA05C7
:1016A00009D5606D40F00800606500220092206856
:1016B00082680092009B606D90B32068426822F0BF
:1016C000E0024260012011F0030F84F8510022D0A3
:1016D00020680FF251054168890889004160E06C7B
:1016E00028B10565E06C03F070F900F023F8A06CF8
:1016F000B0B10565A06C03F068F988B1606D40F089
:101700004000606573BD00200090D1680091926830
:101710000092009873BD2046BDE8764003F06EBA93
:1017200073BD0000806B0021C1870022C28603F0D8
:1017300065BA000018B1606D40F040006065704708
:101740002068016821F040010160704738B504004D
:1017500001D1012032BD00F06BF818B900F031F969
:1017600001F08BFE35E090F83D10012901D00120F9
:101770007047022180F83D10DFF8982001689142FF
:1017800018BFB1F1804F17D0DFF88C2091421CBFF9
:10179000DFF8883099420FD0DFF8842091421CBFD7
:1017A000DFF88030994207D0DFF87C2091421CBFDF
:1017B000DFF87830994205D1896801F007010629E0
:1017C00005D001680A68084642F001020260002064
:1017D000704702206870211D206800F0F6F8012093
:1017E000A8720121A970E87029716871A971E87166
:1017F000297268726970002032BD38B5040001D1C9
:10180000012032BD00F014F818B900F0DAF803F046
:10181000F6F9DEE700000140000400400008004047
:10182000000C00400004014000400140001800404E
:1018300004F13C0568787047002084F83C00284695
:10184000704770B500F058F801D1022070BD01203A
:1018500084F83C0032B1042A15D0082A25D00C2A7D
:1018600034D045E0206800F0FBF82168886940F03A
:1018700008008861886920F0040088618A693069FD
:1018800002438A6135E0206800F016F9206881691A
:1018900041F400618161816921F480618161816924
:1018A000326941EA0221816123E0206800F034F9C5
:1018B0002168C86940F00800C861C86920F00400C8
:1018C000C861CA6930690243CA6112E0206800F049
:1018D00052F92068C16941F40061C161C16921F414
:1018E0008061C161C169326941EA0221C16100E0E0
:1018F0000125FFF7A1FF70BD0446002594F83C00C8
:1019000001280E46704770B5064606F13C050024D6
:101910002878012801D1022070BD01202870022200
:101920006A70DFF898023268936803409360086831
:10193000020018BF102830D0202818BF30282CD023
:10194000402826D0502819D060281BD0702806D0F7
:10195000B0F5805F27D0B0F5005F07D022E000F03F
:101960002BF83068816841F0770105E000F024F839
:101970003068816841F48041816014E000F018F81B
:1019800050210BE0CA684968306800F03EF96021D8
:1019900004E000F00DF8402100E00146306800F05E
:1019A00046F900E001240120687000F00AF870BDDB
:1019B000CA684968306819E1CB684A688968306844
:1019C0003DE10021297020467047F0B505687C4C48
:1019D0007C4B7D4A7D4E7E4FA04218BFB0F1804FB8
:1019E00007D0B84218BFB04203D0904218BF984207
:1019F0000ED125F0700C4D6845EA0C05A04218BFC9
:101A0000B0F1804F17D0B8421CBFB042904212D004
:101A100098421CBF6F4A90420DD06F4EB0421CBF1F
:101A20006E4A904207D06E4EB0421FBF6D4A904240
:101A30006D4EB04203D125F44072CD6815434A691A
:101A400025F0800515430560A0428D68C5620A68CF
:101A5000826212BF98420969016301224261F0BDAE
:101A6000F0B5026A564F574E520852000262026A9F
:101A7000436885690C6825F073052C438D6822F056
:101A800002021543B84218BFB04207D1CA6825F018
:101A900008051543B84225F0040501D0B04205D130
:101AA0004A6923F440731A438B691343436084618A
:101AB000496841630562F0BDF0B5026A404E22F00C
:101AC00010020262B042056A436884690A6824F41D
:101AD000E64444EA02248A6825F0200545EA021516
:101AE000384A18BF904208D1CF6825F0800545EAF2
:101AF0000715B04225F0400501D0904206D14E694D
:101B00008A6923F44063164343EA86034360846191
:101B1000496881630562F0BDF0B5026A284E22F47F
:101B200080720262056A4368C2690C6822F073021F
:101B300014438A6825F4007545EA0225214AB0421B
:101B400018BF904208D1CF6825F4006545EA072503
:101B5000B04225F4806501D0904206D14E698A6971
:101B600023F44053164343EA06134360C4614968B3
:101B7000C1630562F0BD70B5026A114E22F4805255
:101B80000262B042046A4268C3690D6823F4E64306
:101B900043EA05238D6824F4005444EA05341CBF4D
:101BA000084DA84204D14D6922F4804242EA8512D0
:101BB0004260C36149680164046270BD8800FFFF30
:101BC0000000014000040140000C004000080040FB
:101BD0000004004000400140004401400048014032
:101BE00000180040001C00400020004010B5036AAF
:101BF000046A64086400046223F00A03846924F020
:101C0000F00444EA0214846123E010B5036A23F06F
:101C1000100303628369046A23F4704343EA0233C6
:101C200024F0A004836144EA0114046210BD8268B8
:101C300022F07002114341F007018160704710B536
:101C4000846824F47F442143114341EA03218160E5
:101C500010BD1943016210BDDFF850118842704772
:101C6000DFF84C1188427047DFF84811884270470E
:101C7000806800F00700062870470168024641F0BE
:101C800001011160704710B5044604F1420009B922
:101C9000027807E0042908BF427803D008290CBF66
:101CA0008278C278012A01D0012010BD11B9022228
:101CB00002700AE0042902D10222427005E00829DC
:101CC00007BF022282700223C3702068042200F042
:101CD000A3F800F021F818BFB0F1804F14D0FFF73F
:101CE000C3FF1CBFDFF8442090420DD0FFF7B8FFC0
:101CF0001CBFDFF83C20904206D0FFF7ADFF1CBFB1
:101D0000DFF83020904203D1FFF7B2FF02D0206805
:101D1000FFF7B3FF002010BD2068416C41F4004183
:101D200041642068DFF88010884270470008004056
:101D3000000401400018004070B500F13C031A781F
:101D4000012A01D1022070BD01221A7002245C70A8
:101D500005686E68AC680A6826F0700616436E6007
:101D600002681148824218BFB2F1804F11D0114869
:101D700082421CBF104DAA420BD00D4882421CBFAC
:101D80000E4DAA4205D0094882421CBF0C4DAA4202
:101D900004D1486824F08004044394600121597000
:101DA0000020187070BD000000000140004001409C
:101DB000000C004000040040000800400004014006
:101DC0000018004010B590F83C20012A01D10220F3
:101DD00010BD012280F83C20CC688A684B6824F44E
:101DE0004074144324F480641C430A680B6924F48F
:101DF0000064144324F480541C434A69C96924F4E0
:101E000000541443026824F480440C4354640023B7
:101E100080F83C30002010BD10B501F01F01036AAE
:101E200004248C40A343036202FA01F1036A1943BC
:101E3000016210BDF8B5040025D004F13C056978B5
:101E400021B900202870204601F0C0FA24216970D1
:101E5000206802685208520002602068016841F45C
:101E6000004101602068026822F40042026002F032
:101E70006CFB01466068DFF87C25904205D2DFF8F4
:101E80007835994205D20120F2BDDFF87005814214
:101E9000F9D32068DFF868354668B1FBF3F3B6097B
:101EA00043EA861646602668376A6068904206D321
:101EB0004FF4967043434FF47A70B3FBF0F35B1C1E
:101EC000BF0943EA87133362491E2368DE696768E6
:101ED000974206D27F0000F044F8042913D204216F
:101EE00011E0A06820B907EB470700F03AF805E0D9
:101EF0001920474300F035F841F4804108050CBF34
:101F0000012141F40041DFF8FC0406400E43DE618C
:101F100022681368E169206A23F0C0030B4303437E
:101F200013602268DFF8E004936821690340E068E9
:101F30000B43034393602268D368A16960691B0A5D
:101F400041EA03230343D3602068016841F00101A3
:101F50000160002068602021697020630021A97061
:101F6000F2BDB1FBF7F1491CC1F30B0170472DE93C
:101F7000F84304460E46154600F064FB04F13C07A6
:101F800080467878202808D1CDF8008019230122D6
:101F9000DFF8781400F070FB002840F0808038787B
:101FA00001287CD00121397000F04FFB212078708E
:101FB000102100F083F92085DFF89805E062E16ADE
:101FC000082918BF012904D081421CBF206B1228A8
:101FD00001D100F048FBCDF800800022089D2B467F
:101FE00000F048FB38B120680168CA0550D54FF4AD
:101FF000007078604CE02069B0F5804F08BF06F0B3
:10200000FE0610D0F109206801F0060141F0F00150
:10201000016143462A46DFF86C15204600F038FC83
:10202000002835D1F6B22068DFF85C15066143461A
:102030002A46204600F02CFC002829D10090216877
:102040004A69009289690091009A208D002821D068
:102050004246294600F077FBA8B900F023F9401E5C
:10206000208521684A69530706D580B220B1606A8D
:1020700002780A6100F00CF942462946204600F039
:1020800075FC0028E1D07868042801D100F054FBE9
:10209000012005E000F050FB00F01DF900E00220F7
:1020A000BDE8F2832DE9F84F00F0E3F800F0B6F94F
:1020B00002D100F096F9002840F0CA803878012853
:1020C00000F0C68000F087F901D400F0ADF900F00F
:1020D00009F91021B97000207860C6F82490A6F89C
:1020E0002A80708D3085DFF86C04F062F16A326806
:1020F000136843F480631360082918BF012904D0D2
:1021000081421CBF306B112801D100F0B8FA009455
:102110000022DDF828904B464FF0011100F0D8F86E
:1021200000284FF4007A32D13069DFF85C84B0F5D2
:10213000804F05D1306845F00105EDB2056132E010
:10214000E809326800F0060B4BF0F00111612346FC
:102150004A46DFF8301400F089F800286ED1306864
:10216000EDB2056100F07FF8002867D100904B4682
:1021700000F072F831680A68084642F48072026022
:10218000009400224FF0011100F0A2F830B1306845
:102190000168CA0552D5C7F804A04FE030684BF07B
:1021A000F10BC0F810B000F05EF8002846D1308D79
:1021B00018B1012804D100F025FA00F005FA15E065
:1021C00002283068016802D100F059F802E041F4B9
:1021D00080610160002000F03EF807E000F0D6F9D1
:1021E00000282BD100F0B8F900F0D5F9308D002887
:1021F0002BD004281FD20128F0D00228DFF83C544D
:1022000000944B460AD100F061F8002816D100F086
:1022100000FA716A0870706A421CE5E700F056F82F
:1022200000280BD100F03AFA4B4600F0DBF900F041
:102230004EF818B9EBE700F0A9F908B1012008E061
:1022400000F0B1F9D2D50069E3E700F044F800E00E
:102250000220BDE8F28F009031684A6900928969D6
:1022600000910098704723464A464146304600F0A8
:102270000FBB06460D469146984602F0C1BC21F4BC
:10228000806101603068026842F400620260704759
:10229000606A411C6162608D411E6185208D411E16
:1022A00021857047606A226801781161606A411C6B
:1022B0006162608D411E6185208D7047B97000207C
:1022C00078606562A4F82A90608D704700222946E4
:1022D000304600F0B5BA202078700021B970002097
:1022E000387070473068016821F400610160222075
:1022F000787070472DE9FC4700F08AF800F08EF8FE
:1023000058D100F06EF8002854D13878012851D007
:1023100000F061F801D400F087F84146D6F800E0FB
:102320000C9D0B98DDF828C0DEF8008028F40068CA
:10233000CEF800804FF0210E87F801E04FF0400802
:1023400087F802804FF0000EC7F804E000F00BF9A8
:1023500000F0AAF9002826D106E0716A0A78026125
:1023600000F031F8411E7185308D88B12246294632
:10237000304600F0D0FA88B9706A3268017811618D
:1023800000F021F800F019F8EED589B20029E4D167
:1023900022462946304600F0E9FA30B17868042830
:1023A00001D100F044FA012005E000F040FAFFF707
:1023B00092FF00E00220BDE8F687421E7285306879
:1023C000426953077047706A411C7162308D411E2B
:1023D0003185708D70470121397030680268D107EE
:1023E00070470094192301220849304600F028BAAA
:1023F00000000000A186010080841E0000093D004D
:1024000040420F000030FFFF007CFFFF0200100081
:102410000646884691469A4602F0F2BB06F13C0712
:102420000446787820287047026842F00102026072
:1024300070472DE9FC47FFF7EBFFFFF7EFFF02D1F5
:10244000FFF7CFFF002840F08180387801287DD049
:10245000FFF7C1FF01D4FFF7E7FF4146D6F800E0E0
:102460000C9D0B98DDF828C0DEF8008028F4006889
:10247000CEF800804FF0220E87F801E04FF04008C0
:1024800087F802804FF0000EC7F804E000F06BF808
:1024900000F05BF900284FD1308D18B1012804D12C
:1024A00000F0B0F800F090F817E0022806D130688C
:1024B0000168FFF7E4FE0020009001E00021009198
:1024C000FFF7CAFE09E02246294600F061F800281D
:1024D00032D100F041F800F05EF8308D002832D0A3
:1024E000042824D20128EED00228DFF8508100947D
:1024F0002B460CD100224146FFF7EAFE00281BD1F3
:1025000000F087F8716A0870706A421CE3E70022E5
:102510004146FFF7DDFE00280ED100F0BFF82B4644
:1025200000F060F84146FFF7D3FE28B9E8E72246FD
:10253000294600F02DF808B1012008E000F033F83A
:10254000CBD50069DEE7FFF7C6FE00E00220BDE85C
:10255000F68700000000FFFF30680169706A0170B3
:10256000716A4A1C7047C6F824C070855346708D46
:10257000DFF824C13085C6F82CC04A460194009586
:10258000304670470800010002000100224649461B
:10259000304600F008BA308D7262411E3185708D70
:1025A000411E7185704730680169706A0170716AF7
:1025B000308D4A1C411E72623185708D411E7185BD
:1025C000306841694A077047009031684A69009253
:1025D00089690091009831680A68084642F40072DF
:1025E0000260704730680169706A0170716A308DED
:1025F0004A1C411E726231850022708D411E718518
:10260000009470473068016821F480610160002007
:1026100070473068016841F40071016030680169F9
:10262000706A0170716A308D4A1C411E7262318578
:10263000708D411E71853268106970470400010079
:102640000D469046994602F0DBBA20680268D10731
:1026500003D4026842F0010202602068016821F49C
:102660000061016070472068016841F48071016079
:10267000704700224FF00111204600F0E1B83068A9
:10268000016841F48071016070473068016841F46D
:1026900080610160704700000000FFFF3068016842
:1026A00021F48061016070472DE9F84304462068F9
:1026B000DDF82080099FD0F800C04CF4807C89466A
:1026C00015461E46C0F800C000974346FFF7D1FFED
:1026D00040B120680168CA0544BF4FF4007020640F
:1026E000032027E02068DFF8541109F0FE09C0F844
:1026F00010903B464246204600F0CAF8A0B9009030
:10270000216800F080F800F01EF840B9012E0DD0CD
:102710002168280A08613A4600F014F830B1206CAC
:10272000042801D100F008F8012003E02068EDB290
:1027300005610020BDE8F2832068016841F4007162
:102740000160704741462046E5E02DE9F84F054617
:102750002868DDF828800B9F0C46FFF797FF164688
:102760002868D0F800C04CF4807C9946C0F800C0BE
:1027700000F056F800284FF4007A2CD12968DFF8D1
:10278000BCB004F0FE00086100F045F8002832D12A
:102790000090296800F037F800F033F870B9B9F10B
:1027A000010F05D02968300A086100F028F828B91F
:1027B0002868F6B2066100F022F830B1286C0428CF
:1027C00019D1286800F034F815E02868FFF758FFA1
:1027D00000F026F838B128680168CA0548BFC5F876
:1027E00040A0032008E0286844F00104E4B204613A
:1027F00000F011F800B10120BDE8F28F00003A4668
:102800004146284687E04A6900923A468969009124
:102810004146009870473B4642465946284637E0B5
:102820000097434600224FF00111284608E0306827
:10283000016841F40071016070470000020001006E
:102840002DE9F041069F05460E4690461C46310292
:102850002868090E01290CBF40698069304080B2A8
:10286000B1B288420CBF0120002040450DD114F1C7
:10287000010FECD002F0C4F9C01B844201D3002C3C
:10288000E5D100F065F8012000E00020BDE8F0810E
:10289000F8B505460E4614461F463102090E286853
:1028A00001291AD14169314089B2B2B291421AD09C
:1028B0004069410519D5286800F025F82A6850615B
:1028C000002105F13C00296320224270817042689A
:1028D00042F004024260017013E08169314089B224
:1028E000B2B29142E4D10020F2BD14F1010FD4D074
:1028F00002F086F9C01B844201D3002CCDD100F038
:1029000027F80120F2BD0268014642F400720A6015
:102910006FF48060704770B505460C46164628680F
:102920004169080612D4284600F06AF808B101206F
:1029300070BD14F1010FF2D002F062F9801B8442E5
:1029400001D3002CEBD100F003F8F0E7002070BDBC
:1029500000202863202105F13C0000224170827094
:10296000416841F0200141600270704770B5054632
:102970000C46164628684169480712D4284600F0DC
:102980003FF808B1012070BD14F1010FF2D002F040
:1029900037F9801B844201D3002CEBD1FFF7D8FF1D
:1029A000F0E7002070BD70B505460C461646286855
:1029B00041694A0618D44169CA0607D402F020F9D1
:1029C000801B84420BD3002CF1D108E06FF0100182
:1029D000416100F00BF841600270012070BD00F011
:1029E00005F841F02001F6E7002070BD00202863C3
:1029F000202105F13C00002241708270416870473F
:102A000010B501684A6953050DD56FF480644C61B7
:102A1000002101633C30202343708170436843F000
:102A200004034360017012F4806018BF0120C0B23B
:102A300010BD09000901020002D4284881547047E2
:102A4000274B02F00F021A4402F8041C7047254B72
:102A500019684FF6FF020002114000F4E0600843DD
:102A6000214908431860704770B51E4B1C68C4F3B9
:102A700002230124C3F10705052D2EBF0F2504FAFB
:102A800005F56D1E1E1D072E34BF0023DB1E2940D9
:102A9000994004FA03F3BDE870405B1E1A401143ED
:102AA000C8E7010007D4012200F01F010F4B8A4044
:102AB000400943F820207047401EB0F1807F01D3C9
:102AC000012070470A490B4A48600023F02010702B
:102AD0008B600720086000207047000000E400E0E1
:102AE00018ED00E00CED00E00000FA0500E100E068
:102AF00010E000E023ED00E038B5040001D1012032
:102B000032BD00F019F808B900F01AF800F01DF80D
:102B100000F025F8FFE7416100F001F832BD2068C0
:102B2000C16841F40051C1600020686020216970D3
:102B30002020A8700020704704F13C056878704799
:102B400000212970204600F0FABC2420687020681B
:102B5000C16821F40051C160204600F088BB2068A4
:102B6000016921F4904101612068416921F02A0145
:102B7000704770B5044604F13C0513466878202878
:102B800032D109B1180001D1012070BD2878012887
:102B90002AD001222A702162A384E3840020686085
:102BA00021226A700FF2A530626BD063626B0FF264
:102BB000DD301064626B0FF26940D0640020666BF8
:102BC00030652068021D606B01F08DFE21686FF09A
:102BD0004000086000222A7000F092FA41F0800163
:102BE00000F047FAF8D170BD022070BD38B500F191
:102BF00030039C7B202C0FD109B1140001D101209E
:102C000032BD1C7B012C07D001241C7300251D60E4
:102C1000BDE8384000F031BA022032BD38B5044674
:102C200004F13D0520684069297821290BD100066F
:102C300009D500F01BF8FCD1606B08B101F089FEEA
:102C4000204600F065FA20684069697822290BD196
:102C5000400609D500F018F8FCD1A06B08B101F0CE
:102C600078FE204600F06CFA002032BD216801F1A8
:102C7000140252E8001F206800F1140321F08001C3
:102C800043E8001000287047216801F1140252E85F
:102C9000001F206800F1140321F0400143E80010F8
:102CA00000287047F8B5044625682A68284601467A
:102CB000C6684B6912F00F0F02F0200106F02000E9
:102CC00007D1002918BF00285DD02046BDE8F2409A
:102CD00062E2DF0702D416F4907F54D0D50705D501
:102CE000F60503D5256C45F001052564550705D586
:102CF000DE0703D5256C45F002052564950705D54B
:102D0000DE0703D5256C45F004052564120706D5BA
:102D100008B9DA0703D5236C43F008032364226C57
:102D2000002A2FD000291EBF0028204600F034FAC8
:102D300020684069216C0A0701D440061DD5204651
:102D400000F0FEF920684169480611D5FFF79CFFA5
:102D5000FCD1A06B60B10FF231410165A06B01F0B5
:102D600034FE00280ED0A06B016DBDE8F44008478A
:102D70002046BDE8F24001F049BF204601F046FF81
:102D800000202064F1BD206B012804F13D0140F0DA
:102D90008B80D00600D5F30640F186800022009299
:102DA0002B680093226850680090009A206843695D
:102DB00058063ED5A26B1068406880B20028E1D06A
:102DC000A38D9842DEDAE085D069B0F5807F2AD005
:102DD000226802F10C0050E8002F236803F10C0573
:102DE00022F4807200F09FF8F2D100F0A0F85208AF
:102DF00000F11405520000F096F8F6D100F097F8B3
:102E000000F1140522F0400200F08DF8F6D12020E8
:102E100048700021216300F090F800F028F9FAD101
:102E2000A06B01F096FDA18DE08D091A89B22046B4
:102E300036E0A38DE28DE08D9B1A00281CBF98B26E
:102E400000286FD02246106800F10C0454E8004FAF
:102E500000F10C0624F4907446E800400028F2D1FA
:102E6000106800F1140454E8004F640800F11406DF
:102E7000640046E800400028F2D12020487000217C
:102E80001163106800F10C0151E8001F00F10C05FE
:102E900021F0100145E800100028F2D199B2104647
:102EA000BDE8F44001F0B3BE10062BD5330629D59A
:102EB0000878212836D1A068B0F5805F04BF20696A
:102EC000002809D1206A01882A46C1F3080151600F
:102ED000206A811C216205E0206A411C216222686F
:102EE00000785060E08C401EE08480B2D0B9206849
:102EF000C16821F08001C1602068C16841F04001D3
:102F0000C160F1BD50060DD572060BD52846C268CA
:102F100022F04002C260204620220A70BDE8F24042
:102F200001F076BEF1BD45E800200028704720681A
:102F300000F1140252E8002F7047206800F10C01E4
:102F400051E8001F00F10C037047000010B500F0BD
:102F500057F816D40021C184026802F1140151E827
:102F6000002F036803F1140422F0800200F0DCF863
:102F7000F2D100F0DDF842F0400200F0D5F8F8D1CF
:102F800010BDBDE8104001F043BE0000806B01F0B1
:102F900040BE10B500F034F826D40021C185026887
:102FA00002F10C0151E8002F036803F10C0422F434
:102FB000807200F0B9F8F2D100F0D7F8016801F1A1
:102FC000140252E8002F01F1140422F0400200F034
:102FD000ABF8F3D100F045F906D100F0A9F822F0E2
:102FE000100200F0A1F8F8D1016B012904D1818D04
:102FF000BDE8104001F00BBEBDE81040FEF7F0B890
:103000000146886B09680A68D3057047806B016BBD
:10301000012918BF01F0FEBD818D490801F0F7BDFF
:1030200038B5846B2068406904F13D052978212971
:1030300006D1010604D50022E284204600F068F89B
:10304000216848696978222906D1400604D5002103
:10305000E185204600F074F8206C40F010002064F8
:103060002046BDE8324001F0D1BD02F10C0321F051
:10307000100143E8001000287047F8B504461346D5
:1030800004F13C05A162A385002068602222AA7099
:10309000A348A26BD063A26BA2481064A26BA248A3
:1030A000D0640020A66B30650A462768A06B391DE6
:1030B00001F019FC00210091226813680093206838
:1030C00041680091002100982970226802F10C00EB
:1030D00050E8001F0C3241F4807142E800100028D3
:1030E000F3D100F00DF841F00101FFF7C2FFF8D174
:1030F00000F006F841F04001FFF7BBFFF8D1F2BD48
:10310000206800F1140151E8001F00F1140370471A
:1031100010B500F00DF822F0C00200F005F8F8D16B
:10312000202180F83D1010BD44E80021002970479F
:10313000016801F10C0252E8002F01F10C04704704
:1031400010B5FFF7F5FF22F49072FFF7EDFFF8D10D
:1031500000F00BF8016B012901D100F073F8202178
:1031600080F83E100022026310BD016801F11402D4
:1031700052E8002F520801F11404520044E80021E3
:103180000029F2D170470000806B0021C185002228
:10319000C28401F03BBD00001CB590F83E1022290E
:1031A0004ED18168826AB1F5805F0AD1016969B93F
:1031B00003685968C1F308011180826A911C816219
:1031C0000FE0002904BF0169002902D10368596892
:1031D00003E00168496801F07F011170816A4A1CAF
:1031E0008262C18D491EC18589B239BB0168CA6836
:1031F00022F02002CA600168CA6822F48072CA60A4
:1032000001684A69520852004A6100F02AF813D155
:103210000021016300F016F802681168CB0607D59B
:103220000024009412680092036859680091009A83
:10323000818D01F0ECFC01E0FDF7D2FF002016BD0E
:10324000022016BD026802F10C0151E8002F03684C
:1032500003F10C0422F0100244E800210029F1D10E
:103260007047202180F83E10026B012A704770B52C
:10327000044622681169E06821F44051014311615C
:10328000D3682A48A168034020690B43616903435E
:10329000E0690B430343D3605169A06921F4407195
:1032A0000143516122498A421CBF2248824202D115
:1032B00001F053F901E001F048F962682568E4691A
:1032C0001921B4F5004FA1FB00016FF0630612D184
:1032D000D30F520001F0A0FC00F02EF8F6003236B9
:1032E0006420B6FBF0F0420002F4F87202EB011227
:1032F00000F0070010E0930F920001F08DFC00F049
:103300001BF8360132366420B6FBF0F000F0F00214
:1033100002EB011200F00F008018A86070BD0000E1
:10332000932F00080D30000821300008F369FFFFDB
:1033300000100140001401406421B0FBF1F106FBD4
:103340000106704710B5104C10490022204601F0CC
:10335000E6FC08B1FDF790FF0D49204601F0F2FCB4
:1033600008B1FDF789FF0B49204601F07DFF08B148
:10337000FDF782FF204601F0F6FC18B1BDE81040D1
:10338000FDF77ABF10BD00BF1C210020A80200205D
:10339000900100209402002081B0002000900022C3
:1033A0009D48416841F480414160416801F4804199
:1033B000009100990092036843F080530360006815
:1033C00000F080500090009801B0704710B586B0B2
:1033D00000F0AFF821689148814222D10022904C40
:1033E00000921222206840F002002060216801F063
:1033F000020100914FF4407100988A4801910292B5
:10340000002103910322042100F032F800200090F3
:10341000216941F400112161206900F4001000903D
:10342000009806B010BD10B586B000F082F8216893
:103430007D4881421AD1002279480092416941F4C5
:1034400080514161416901F48051009100990092DD
:10345000E02100F0D0F8052100F00AF80022002158
:103460002320FFF701FB2320FFF71BFB06B010BD55
:103470000591049201A9FDF789BF81B000686C4AEB
:103480006549904207D1002000904A6842F001024D
:103490004A60486809E0B0F1804F0AD100200090EE
:1034A0000A6842F001020A60086800F0010000901A
:1034B000009801B0704710B586B000F03AF8216866
:1034C0005B4881422ED100225548564C009201683B
:1034D00041F002010160026802F002020092002243
:1034E000009900920221036843F001030360006821
:1034F00000F00100009000980291039204924FF4B2
:10350000005101220191059200F00FF8012105916F
:103510004FF4804200F008F8012105914FF4004279
:1035200000F002F806B010BD019201A92046FDF797
:103530002DBF04461422002101A801F0D9BE2DE9B7
:10354000F04186B0FFF7F5FF21683A4881424FD13C
:1035500000223348384FDFF8E48000924FF00066D5
:10356000016941F4003101614FF48065016901F4A2
:1035700000310091009900920C2100F03CF80721E5
:10358000FFF776FF00200021C7F800807E60B8605A
:10359000F9603D617861B9614FF48070F86139621A
:1035A0007962384601F028F908B1FDF765FEA76396
:1035B000BC6308F11800224F3860402100207E6073
:1035C000B960F8603D617861B861F861386278622D
:1035D000384601F011F908B1FDF74EFE6763BC6390
:1035E000002200212620FFF73FFA2620FFF759FA94
:1035F00006B0BDE8F081036843F0010303600222D6
:10360000006800F0010000900098084801910292C3
:1036100000210391032270474038024000540040CB
:1036200030380240000402400030014000000240F7
:103630000000014000440040202A00208860024031
:10364000802A002001B584B04FF40070012104AA43
:103650000290019100920123B0221A21DFF83C036D
:10366000FEF748FE05B000BD12B583B004004FF46C
:10367000007002900120019003A800900123220015
:10368000D2B292B21A21DFF81403FEF733FE04B06F
:1036900010BD7CB504000D002000C0B2FFF7D2FFC2
:1036A00006003000C0B2002802D03000C0B217E0DF
:1036B000A0208DF8040002208DF80500280080B2BB
:1036C000000A8DF8060028008DF807004FF40070FE
:1036D0000090042301AA1A21DFF8C002FEF747FC7C
:1036E00076BD7FB504000D002000C0B2FFF7AAFF31
:1036F00006003000C0B2002802D03000C0B219E08D
:10370000A0208DF8040003208DF805002800000C8F
:103710008DF806002800000A8DF8070028008DF8B3
:1037200008004FF400700090052301AA1A219B485D
:10373000FEF71DFC04B070BDF8B584B004000D00A8
:103740002000C0B2FFF77EFF06003000C0B20028A4
:1037500002D03000C0B217E00020ADF80C004AF2F1
:1037600002174FF4007002900220019003A800900D
:1037700010233A0092B21A218848FEF75AFEBDF88B
:103780000C1049BA2980C0B205B0F0BD38B50400AC
:1037900083484188214305880D43290089B2090ADD
:1037A000C9B28020FFF760FF32BDF8B505000C00FC
:1037B0002E000027FF0647EA5617F60630003900AC
:1037C000090141EA107100012200002301F024FAEE
:1037D000F2BD38B50400734D29002000FFF7E5FF66
:1037E00001008220FFF77DFF002801D0022000E0C9
:1037F000002032BD80B510218120FFF735FF002861
:1038000001D0022003E0012067490873002002BDB7
:1038100080B54FF42040FFF7B9FF08B1022002BD88
:103820006149087302BD80B500F042F808B102207A
:1038300002BD1DE05A4A538803280DD8DFE800F086
:103840000205080B4FF4007306E04FF4806303E0B9
:103850004FF4C06300E00023538011B1012904D06C
:1038600070474FF4807010807047002111807047BE
:103870004D4901200873002002BD10B50C464A498D
:1038800008610022CA8100234B618A61FFF7A1FF12
:1038900060B921468A20FFF7FCFE38B900F008F82D
:1038A00020B94FF48050FFF771FF00B1022010BD26
:1038B0004FF430406AE780B54FF4005002E080B525
:1038C0004FF48040FFF762FF00B1022002BDE0B577
:1038D00000218DF804108F20FFF7B4FE4FF4007123
:1038E0000091012301AA1A212C48FEF7DBFB10B13D
:1038F000FF208DF804009DF804000EBD1CB5FFF7F5
:10390000E6FF8007284C2ED50DF102019420FFF729
:1039100013FF69469620FFF70FFF6069BDF902109B
:1039200041186161A069BDF900104118A161E089E9
:10393000401CE0812089E189814212D1E1696269FC
:1039400092FBF0F28A80A36993FBF0F0C88000201C
:1039500022690A6060610021A161E0810321217375
:1039600001E006202073207B16BDF8B504000D0091
:103970000D4EF56194E8070086E80700A088E78807
:103980000743390089B22068FFF777FF0100C9B209
:10399000022901D005213173C0B2F2BD6428002094
:1039A000EC2B00200024F400702B002038B504001C
:1039B00001D1012032BD20684CF6CC41016045F2B6
:1039C0005552026063684360A168816001F018F994
:1039D00005462068C16811F0030F0BD001F010F903
:1039E000401B3228F5D32068C16811F0030FF0D0D6
:1039F000032032BD4AF6AA210160002032BD0068D2
:103A00004AF6AA2101600020704700002DE9F84322
:103A100005000E001700B64C3879401C2072667203
:103A20005FF0000840463979C0B288420AD238684F
:103A30004146C9B2405C4146C9B22144887218F17E
:103A40000108EFE714F108093A79921C4946002071
:103A500001F058FC0200100080B2000A39792144BC
:103A6000887238792044C272C4F800903879001DF9
:103A70002071D4E90001C5E90001BDE8F1832DE919
:103A8000F84F9C4F9C4B7968DFF87092DFF870A27A
:103A9000DFF870B20246787807F5847C10B907F138
:103AA000080126E0012808BF614622D0022808BF8D
:103AB00007F502711DD0032808BF07F5427118D021
:103AC000042808BF07F5816113D0052808BF07F552
:103AD000A1610ED0062808BF59460AD0072808BFA2
:103AE000514606D0082808BF494602D0092808BF19
:103AF000194679608E46CD218EF800100224CE2121
:103B00008EF8011000250FE01668765DCD2E03D1EA
:103B1000CD240EF808400C461168495DE6B26D1CD4
:103B20000EF80610641CEDB21679611CB5425FFAFE
:103B300084F8E9DBCD240EF80840CDB2CF240EF88E
:103B40000540491C39700246C9B228B907F108007E
:103B500000F00CFE012241E0012804D1604600F093
:103B600005FE02223AE0022805D107F5027000F0B6
:103B7000FDFD032232E0032805D107F5427000F075
:103B8000F5FD04222AE0042805D107F5816000F044
:103B9000EDFD052222E0052805D107F5A16000F022
:103BA000E5FD06221AE0062804D1584600F0DEFDA5
:103BB000072213E0072804D1504600F0D7FD082261
:103BC0000CE0082804D1484600F0D0FD092205E0A9
:103BD000092803D1184600F0C9FD00227A70BDE81B
:103BE000F18F80B586B04848016802A801F0D2FB89
:103BF00046480088ADF80C0002A8009008208DF817
:103C000004006A46052104A8FFF700FF4048DDE9EB
:103C10000423C0E90023FFF732FF07B000BD38B529
:103C200062B600F098F9FDF74DFB002039490860B5
:103C300039490860394908603948016889088900AC
:103C40000160016851F0010101603648056885F3A3
:103C5000088835480468A047FEE77CB5040000F0FA
:103C6000CFFF05002A4E2800000E30722800000CFD
:103C700070722800000AB072F57234730520307536
:103C800016F10800306116F1100202216846FFF7B4
:103C9000BDFEDDE90001C6E900013000FFF7EFFEDF
:103CA00073BD3EB504001A4DAC610A20287715F1AA
:103CB000180201216846FFF7A9FEDDE90001C5E908
:103CC00000012800FFF7DBFE37BD1CB50400174AD2
:103CD00014601820107104216846FFF797FE0C4805
:103CE000DDE90023C0E90023FFF7C9FE13BD000092
:103CF000182900200C130020141C0020141B002085
:103D0000141A00201419002070010020322A000823
:103D1000902B002018E000E014E000E010E000E04C
:103D2000003801400000FF1F0400FF1FE42B0020AB
:103D30002DE9F843054600242878DFF84466C107DA
:103D400008D5B068696920F0C0600843B060686950
:103D500000B901242878810708D5B068A96920F046
:103D6000C0500843B060A86900B901242878DFF882
:103D7000147601075FD500200090396CDFF80886C3
:103D800041F080513964386C00F080500090009808
:103D9000D8F8001041F48071C8F8001000F030FF2E
:103DA0008146D8F80000C10507D400F029FFA0EB38
:103DB00009000228F5D90320BBE0386F10F44070E9
:103DC0001EBFE96901F4407188421BD0386FDFF8EB
:103DD000BC1501220A6000230B6020F44070386794
:103DE000386FC1070ED500F00BFF8046386F810792
:103DF00008D400F005FFA0EB080041F289318842A9
:103E0000F4D3D8E7E96901F44070B0F5407F08D1F8
:103E1000BA68DFF87C0522F4F81201401143B9605A
:103E200003E0B86820F4F810B860386FE969C1F3AE
:103E30000B01084338672878410704D595F8380006
:103E4000DFF8501508602A78D00605D53169686A10
:103E500021F4400101433161297888060AD531698E
:103E6000A86A21F0006101433161A96AB1F1006FD4
:103E700008BF01242978480605D53169286A21F050
:103E800080510143316114B9286880283ED1DFF8A0
:103E9000084500F05CF880463968080106D500F056
:103EA000AFFEA0EB08000228F6D984E7686BDFF8C4
:103EB000EC1408602968CA0701D5686990B18A07BF
:103EC00001D5A86970B1880603D5AA6AB2F1006F5E
:103ED00008D0490608D5286A002804BFA86AB0F1AE
:103EE000006F01D100F027F82878010601D500F015
:103EF00022F8012000F02CF804463968080105D4A6
:103F000000F07EFE001B0228F7D954E72868C1059F
:103F100005D5B268E86A22F000420243B26029681F
:103F2000880505D5B168286B21F400410143B160D3
:103F30000020BDE8F2836868A968EA6840EA811059
:103F4000296940EA026040EA017030607047002051
:103F5000206000F055BE38B500F052FEDFF8244472
:103F60000546206840F0010020602168880706D4DB
:103F700000F046FE401B0328F7D3032032BD206823
:103F800040F08000FFF7E4FF0021A1600546A06833
:103F900010F00C0F07D000F033FE401B41F28931C6
:103FA0008842F4D3E9E700F02BFE0546206820F4B0
:103FB000502020602168880305D500F021FE401BB9
:103FC0006528F7D3D9E700F01BFE0546206820F0EE
:103FD000807020602168880105D500F011FE401B2B
:103FE0000328F7D3C9E700F00BFE216821F08061B8
:103FF000216005462068010105D500F001FE401B47
:104000000328F7D3B9E7DFF89C03DFF87413DFF870
:10401000982360600860DFF88813E06820F4F850A7
:10402000E060E06820F40050E060E06840F41F00C9
:10403000E060E06840F40010E060606F400840001D
:104040006067606F40F080706067DFF86003016058
:104050001068FDF7DBF800B1012032BD2DE9F8430F
:10406000040016D02078DFF81C63C10713D5B068B0
:1040700000F00C00042807D0B06800F00C000828FD
:104080003FD1706841023CD53068810303D5606838
:10409000002800F06B812078DFF81473810719D5B0
:1040A000B06810F00C0F07D0B06800F00C000828C2
:1040B0005CD17068410259D43068810703D5E0684B
:1040C000012840F053813168206921F0F80141EA6C
:1040D000C0013160217808077AD56069DFF8D41211
:1040E000002868D001220A6000F08AFD0546706F42
:1040F00081076DD400F084FD401B0228F7D903200E
:1041000037E16068B0F5803F04D1306840F480301A
:10411000306011E0B0F5A02F306806D140F4802067
:104120003060316841F4803105E020F48030306047
:10413000316821F480213160606858B100F060FD81
:10414000054630688103A6D400F05AFD401B65285F
:10415000F7D3D4E700F054FD0546306881039AD5C3
:1041600000F04EFD401B6528F7D3C8E7E068A8B112
:104170000121396000F044FD05463068810705D40F
:1041800000F03EFD401B0228F7D9B8E730682169EE
:1041900020F0F80040EAC10030609BE7386000F092
:1041A0002FFD05463168880794D500F029FD401B96
:1041B0000228F7D9A3E7086000F022FD0546706FDA
:1041C000810705D500F01CFD401B0228F7D996E7B2
:1041D0002078410760D5306C0025C1000BD4002049
:1041E00000900125316C41F080513164306C00F059
:1041F000805000900098DFF89081D8F80000C10549
:1042000013D4D8F8000040F48070C8F8000000F023
:10421000F7FC8146D8F80000C10506D400F0F0FC98
:10422000A0EB09000228F5D969E7A068012805D0AC
:104230000528306F06D140F004003067306F40F041
:10424000010005E0400840003067306F20F00400B6
:10425000306741F28938A06860B100F0D1FC814636
:10426000306F810713D400F0CBFCA0EB0900404570
:10427000F6D344E700F0C4FC8146306F810706D5D1
:1042800000F0BEFCA0EB09004045F6D337E71DB1B6
:10429000306C20F080503064A069002868D0B1688C
:1042A00001F00C01082938D002282AD100F063F867
:1042B00005463068810105D500F0A2FC401B0228AC
:1042C000F7D91CE7E069216A626A0843A16A4908D4
:1042D00040EA8210491E40EA0140E16A226B40EA4E
:1042E000016040EA02707060012000F045F8044669
:1042F000306881013CD400F083FC001B0228F7D910
:10430000FDE600F038F804463068810130D500F051
:1043100077FC001B0228F7D9F1E6012826D0706847
:10432000E26900F48001914202BF00F03F01226A7D
:10433000914201BF47F6C0710140626AB1EB821F32
:1043400014D1A26A00F4403101F580315208B1EB7A
:10435000024F02BF00F07061E26AB1EB026F02BF70
:1043600000F0E040216BB0EB017F01D0012000E0C4
:104370000020BDE8F2830020386600F041BC000058
:10438000843802400038024000700040400E47422E
:10439000FFFCFF0FE011474268004742D810474238
:1043A0000024F400103000247C0100208001002053
:1043B00000004742800E47422DE9F04104000F46BD
:1043C00054D06B4E306800F00700B84202D200F0C3
:1043D00073F84BD12068674D810712D5400703D58C
:1043E000A96841F4E051A9602078010703D5A868C5
:1043F00040F46040A860A968A06821F0F001014382
:10440000A9602178C80729D56068012802D12968E8
:104410008A0305E0022818BF032803D129688A010E
:1044200003D423E029688A0720D5A968890840EACF
:104430008100A86000F0E4FB8046A868616800F095
:104440000C00B0EB810F09D000F0DAFBA0EB080004
:1044500041F289318842F0D303202BE0306800F02C
:104460000700874204D200F027F801D0012021E0A4
:104470002078410705D5AA68E06822F4E05202439B
:10448000AA602178080706D5A968206921F460414F
:1044900041EAC001A96000F089FFAA683649374B9C
:1044A000C2F30312895CC840186035480068FCF705
:1044B000ADFE0020BDE8F0813770316801F00701E2
:1044C000B942704770B586B00C4615462D4EA8B956
:1044D00000900222B16A41F00101B1624FF4807193
:1044E000B06A00F0010000900098274800F020F822
:1044F000316821F0EC610C432C4316E00020009061
:104500000222B16A41F00401B1624FF40071B06A55
:1045100000F00400009000981C4800F009F8306892
:1045200020F07840044344EAC504346006B070BD0E
:10453000019102920321049100220392059201A9A4
:10454000FCF724BF0D48006870470C480D4A00680E
:1045500013680F49C3F3822206E00848094A00683D
:1045600013680B49C3F34232895CC84070470000AE
:10457000003C024000380240107400088001002016
:104580007C01002008380240000002400008024080
:10459000947400080146002001F17842B2F5804F82
:1045A00046D34C484018B0F5804F01D201207047E7
:1045B00049484018B0F5804F01D202207047474863
:1045C0004018B0F5804F01D203207047444840188E
:1045D000B0F5803F01D20420704742484018B0F542
:1045E000003F01D2052070473F484018B0F5003F1A
:1045F00001D2062070473D484018B0F5003F01D277
:10460000072070473A484018B0F5003F01D2082013
:10461000704738484018B0F5003F01D20920704774
:1046200035484118B1F5003F01D20A2070470B20F0
:10463000704738B586B00D4600210091FFF7AAFFFC
:1046400004462846FFF7A6FF0394002101910222A9
:10465000041B0592641C0494694601A800F0D6FE70
:10466000401E8041C00F07B030BD70B50400234D1F
:104670002E0000F0B0FF002801D000201FE02049EC
:104680002800FFF7D6FF002801D1002017E0002501
:10469000052D0DDA54F8252000233100022000F00A
:1046A00063FF002801D0002009E0361D6D1CEFE7F4
:1046B00000F0A1FF002801D0002000E0012070BD23
:1046C00080B5104800210180FFF7CFFF00B1012025
:1046D00002BD000000C0FFF70080FFF70040FFF7B9
:1046E0000000FFF70000FEF70000FCF70000FAF7FB
:1046F0000000F8F70000F6F70000F4F700000108EA
:10470000FFFF0108D02B002038B5224C224D00229B
:1047100005F50061204600F0AEFD2946204600F078
:10472000B5FD002032BD002070470020704770B5F5
:1047300004460D46174E2146304600F0A7FD304690
:1047400000F0C3FD154E0421304601F007F82D7826
:104750002A462146304600F027F82946204600F038
:10476000FDFF0F4901200870002070BD10B5094CF5
:10477000D4F8BC320A46D3F8141209B1012010BD96
:104780000146204600F077FD2046BDE8104000F0CD
:1047900086BD00001C2100200C030020000000202A
:1047A00007000020002070474AB1000011F8013BCB
:1047B000521E00F8013B1CBF11F8013BF8E770479F
:1047C0007047000000B500BF1300964694461039AC
:1047D00028BFA0E80C50FAD85FEA417C28BF0CC083
:1047E00048BF40F8042BC90728BF20F8022B48BF58
:1047F00000F8012B00BD000070B5044600F000FA7F
:1048000006460CB9012070BD04F134050220687021
:104810000021297020680268520852000260226854
:104820001068C1070AD500F0EBF9801B0628F6D303
:104830002020286203216970032070BD1368DFF80F
:10484000401360680B40A1680343E0680B43216993
:10485000034360690B43A1690343E0690B43216A89
:104860000343606A1943042803D1E06A0843216BBB
:104870000143116023685A69606AD208042840EA3B
:10488000C2020AD1A66AE16A324331B1A06988B98D
:10489000002E18BF022E1FD016D35A61204600F0FA
:1048A00095F9A96A3F228A4082600020286201218E
:1048B000697070BDB0F5005F0AD1032EEDD8DFE856
:1048C00006F00D0B0D03E8E7B1F1C07FE5D105E07F
:1048D000022E03D9F61EE0D1C801DED5402129629F
:1048E0000120687070BDF8B5044604F13406002557
:1048F0003078776A012801D10220F2BD01203070A2
:1049000096F801C0BCF1010F1FD102207070AC46B7
:10491000C6F820C0204600F049F9B06A3F2101FAEC
:1049200000FCC7F808C02068016841F0160101606A
:10493000F06820B12068016841F00801016020683A
:10494000016841F00101016001E03570022528464F
:10495000F2BDF8B5044604F134056E6A00F050F972
:1049600007466878022805D0802129620020287037
:104970000120F2BD2068016821F01601016000F0FD
:1049800003F9E868002804BF6869002801D000F036
:1049900007F900F0FFF820680168CA070CD500F09D
:1049A0002FF9C01B0628F6D3202028620321697046
:1049B000002028700320F2BDA86A3F218140B16029
:1049C0000020012169702870F2BD90F8351002298D
:1049D00003D08022426501207047052180F8351000
:1049E00000680268520852000260002070472DE9FA
:1049F000FC41044604F134060020624900904FF463
:104A00001650776A0A683D68B2FBF0F8B06A082170
:104A100001FA00F005420ED02068026853070AD55B
:104A2000026822F004020260B06A8140B960316A13
:104A300041F001013162B06A25FA00F1CA070BD5D5
:104A400021684A69110607D5012202FA00F0B86010
:104A5000306A40F0020030620421B06A81400D42A9
:104A600008D022681068830704D5B960306A40F026
:104A7000040030621021B06A81400D421BD02268D0
:104A80001068030717D5B960206801684A0307D585
:104A9000006801030BD5716969B1204688470AE0B7
:104AA0000168CA0503D4016821F008010160F168BA
:104AB00009B120468847B06A202181400D423FD08D
:104AC00022681068C3063BD5B96020687178052953
:104AD0001CD1026822F01602026000F055F8F0685E
:104AE000002804BF7069002801D000F059F83F2267
:104AF000B06A8240BA60012171700020F1693070A3
:104B0000002939D02046BDE8FC41084701684A0326
:104B100007D5006801030FD4316989B12046884761
:104B20000EE00168CA0507D4016821F01001016098
:104B30000120707000213170B16809B120468847AA
:104B4000306AC8B1306AC10710D50520707000F016
:104B500021F80098401C8045009003D3206801682C
:104B6000CA07F6D40120707000213170B16919B103
:104B70002046BDE8FC410847BDE8F3810000000085
:104B80003F8010F0800100202068416921F0800101
:104B90004161704720680168490849000160704719
:104BA0002068016821F008010160704730B5046891
:104BB000256825F48025256063608068402802D13F
:104BC000A260E16030BDA160E26030BD30B5014659
:104BD0001823086807A400F0FF02103AB2FBF3F2B2
:104BE000800AA55CCD658002042A28BF001D886567
:104BF00030BD000000061016000610167047704702
:104C000001484068704700BF74010020704770473A
:104C10007047704770470000D3BBD9B1B2F5803FF1
:104C20005BD2022A1ED98C46B1FBF2F102FB11C302
:104C30001B0443EA1043B3FBF2FC02FB1C3380B2BB
:104C400040EA0343B3FBF2F002FB103240EA0C40AF
:104C500000237047022A05D98446B0FBF2F002FB1C
:104C600010C270474AB105D100F0010249085FEA5D
:104C70003000704700220023704700F073BD0B0026
:104C80000200002100207047F7D300220023704764
:104C9000904271EB030CF2D370B5B1FA81F4B3FA20
:104CA00083F52C1BA340C4F1200532FA05F63343EB
:104CB000A2405FF00046E64002E05B085FEA320295
:104CC000841A71EB030524BF204629467641F4D3AC
:104CD00002000B003000002170BD70B5B1FA81F404
:104CE000B2FA82F5C4F120046419B4F12006DAD3D3
:104CF000B2405FF00044F440002502E052085FEA51
:104D00003303C61A71EB020E24BF3046714664416C
:104D10006D41F3D302000B002000290070BD10B5D7
:104D200008B9032010BD00F527730024DC615C6224
:104D30001C6301B19961012119700270BDE8104036
:104D400000F0B1BD1CB50022ADF8002009B9032068
:104D500016BD00F52E742160C96A11B168468847F6
:104D60006061002016BD00F0CCBD02460320D2F8E1
:104D7000B83213B110461A681047704780B5D0F8A2
:104D8000B8220AB152689047002002BD38B50446E7
:104D900004F2AA25284601F055F804F525700121F2
:104DA0000160828B817D426011F01F0003D00228D8
:104DB0000DD006D311E029462046BDE8344000F06E
:104DC00039BE29462046BDE8344000F080BF294660
:104DD0002046BDE8344000F0A0BF2046BDE8344086
:104DE00001F0800100F0A6BD38B5044610460A0067
:104DF00004F525731FD1196803290ED104F5AE718E
:104E00004A680D68AA420AD2AD1A0D60954238BFB1
:104E10002A460146204601F072F8002032BD187A79
:104E2000032804D1586A016909B120468847204601
:104E300001F06DF8F1E7187A0328EED1586A82691B
:104E4000002AEAD02046BDE83840104738B504466D
:104E500010460A0004F5257538D1296802292ED19B
:104E6000E269216A914206D2521AE2610146204665
:104E700001F033F80DE013D1A069884210D36968BE
:104E800088420DD200220021204601F026F80020A1
:104E90006860002300220021204600F072FD0EE031
:104EA000287A032804D1686AC16809B12046884776
:104EB0008021204600F03EFD204601F02FF8287B9F
:104EC000012804BF00212973002032BD287A03285D
:104ED000FAD1686A4269002AF6D02046BDE8384017
:104EE000104710B5044604F5257001210172002217
:104EF0000260002363600261416A09B9032010BDAA
:104F0000806A00281CBF4A68002A02D0002120467F
:104F10009047402300220021204600F0FAFC04F5CF
:104F2000B070012140228180026040230022802154
:104F3000204600F0EEFC0120A084402121620020E8
:104F400010BD01740020704700F52770042201781D
:104F5000417002700020704700F527700178042925
:104F600004BF417801700020704780B500F52772BA
:104F7000D16909B9032002BD1278032A02D1C96997
:104F800001B18847002002BD80B500F52773DA69BA
:104F90000AB9032002BD1B78032B02D1126A02B1A9
:104FA0009047002002BD80B500F52773DA690AB981
:104FB000032002BD1B78032B02D1526A02B1904735
:104FC000002002BD0020704780B500F52771012246
:104FD0000A70CA691AB141685268C9B29047002084
:104FE00002BD0000F8B505464FF4077000F004FD5F
:104FF000040005F52F7602D130600220F2BD346046
:1050000005F14C07287C40B94FF4007300F033F8E9
:10501000012028874FF4007305E0402300F02BF8AF
:1050200001202887402302220121284600F071FC3C
:105030000120A5F87801102179800823032282211C
:10504000284600F066FC0120388071680A689047A5
:1050500004F501710020086100224A61287C0028C3
:105060000CBF4FF4007340230A680121284600F06A
:1050700088FC0020F2BD02228121284600F049BCB4
:1050800038B50446812100F04FFC04F138050020BA
:1050900028800121204600F047FC0020A4F8780178
:1050A0008221204600F040FC0020A882E88204F51E
:1050B0002F74206838B1606841688847206800F024
:1050C000A9FC00202060002032BDF8B5054605F59A
:1050D00027730E461C6A00218DF80010ADF80210EF
:1050E00000270CB90320F2BD317811F0600024D004
:1050F00020283ED1F2887078D2B109060DD55B6ABE
:10510000D3F808C02146E047F288082A28BF0722C2
:105110002146284600F0D9FE30E004F50071087001
:10512000F08848702146F288284600F0DEFE25E02F
:105130005B6A9C683146A04720E0707830B1012856
:105140001CD00A2809D00B2810D012E019780329A6
:105150000FD102220DF1020104E01878032808D1D2
:1051600001226946284600F0B0FE07E018780328BF
:1051700004D03146284600F07AFE03273846F2BDB7
:10518000F8B5044604F52F739E681D680DB9032019
:10519000F2BD0F46142010FB07F004EB000CDCF806
:1051A000180080B11C225743F219526CB0FBF2F682
:1051B00002FB160038B9CCF8180000230022204664
:1051C00000F0D9FB0BE005F502700022C2605B68BD
:1051D0001B6923B10A46006805F504719847002051
:1051E000F2BD70B500F52F752C680CB9032070BDA9
:1051F00004F5017600F0CBFBB06004F503716A683A
:105200003068D3689847002070BD10B500F52F7046
:10521000016809B9032010BD4368002B1EBF01F5CA
:1052200000742078FF2804D062789B689847FF209C
:105230002070002010BD43210180074870474321A2
:1052400001800648704743210180054870470A21C4
:1052500001800448704700000C020020C8010020B3
:10526000500200208401002009B903207047C0F8D3
:10527000C01200207047D0F8BC0208B90320704764
:1052800000F502700160826000207047D0F8BC0217
:1052900008B903207047C0F804120020704710B509
:1052A000D0F8BC12012209B9032010BD01F5027427
:1052B000E16841B9E260A168C162A3682268812106
:1052C00000F059FB0022104610BD80B5D0F8BC128A
:1052D00009B9032002BDD1F80422017C00290CBFCA
:1052E0004FF400734023012100F04BFB002002BD6E
:1052F00010B5044610460A460146204600F016FE48
:10530000204610BD2DE9F0470400002000250026AE
:1053100000292BD020000027974227D25FEA001CEB
:10532000CB5DDBB286461FFA8EFE5FEA1E3E9EEA2A
:10533000131E0FF240087346DBB238F8139099EA57
:105340000C095FEA09131D0011F807A01AF00F0AF3
:105350004B469BB21B0B93EA0A0A56463300DBB25C
:1053600038F813306B4018007F1CD5E780B2BDE8D9
:10537000F08700000000B71F6E3FD920DC7E6B6114
:10538000B241055EB8FD0FE2D6C261DD6483D39CF5
:105390000ABCBDA35FEA000C11F8012B00F8012B39
:1053A00012B111F8012BF9E76046704730B5144C83
:1053B000606800F00C00042802D0082802D01DE02C
:1053C000104830BD226820680023410202F03F02ED
:1053D00004D525680B49C5F3881003E020680A4905
:1053E000C0F38810A1FB0001FFF716FC2168C1F390
:1053F0000141491C4900B0FBF1F030BD024830BD0D
:105400000438024000366E010024F4002DE9F04714
:10541000524E0446307E8946012808BF02203CD007
:10542000012030764CF2503A504600F0ECF88046BD
:1054300080BB4FF0FF30C9F800002168484D0129BA
:105440000DD120696168C0B200F029F8504600F023
:10545000DAF88046286820F00400286018E0A76881
:1054600000E07F1CE068A1680818874210D221691B
:10547000C9B2384600F023F8504600F0C4F85FEA9D
:105480000008286820F0FA002860EAD0C9F8007007
:1054900000F03BF8002030764046BDE8F087304908
:1054A0000A6822F440720A600B6843F004030B6040
:1054B0000A6842EA002242F480320A60704710B55E
:1054C00000220B000AD0012908BF4FF4807205D0DA
:1054D00002290CBF4FF400724FF4407220490B6850
:1054E00023F440730B600C6822430A600A6822F0C0
:1054F000F8020A600B6843EAC00343F002030B6042
:10550000086840F48030086010BD164801688A05BC
:105510000FD5016821F400710160026842F4006255
:105520000260016821F400610160026842F40072C7
:10553000026001684A050FD5016821F480610160AD
:10554000026842F480520260016821F480510160D7
:10555000026842F48062026070470000B02B0020B5
:10556000103C0240003C02402DE9F843754F0646CE
:10557000387E894614461D46012808BF022028D0DF
:10558000012038764CF25038404600F03CF80100DB
:105590001DD1484622462B461EB9D1B200F08EF8E6
:1055A0000DE0012E03D191B200F072F807E0022E57
:1055B00003D1114600F063F801E000F04CF84046DA
:1055C00000F021F860490A68520852000A60002180
:1055D0003976BDE8F2835E49CA680020002A00D40B
:1055E000704710B55B4A5C4C0A600C60C9680029C2
:1055F00048BF012010BD5448016841F00041FFE759
:1056000001600020704770B504464E494F4E00209F
:10561000C861FFF7F5FA05463068C1030AD514F1F1
:10562000010FF9D024B1FFF7EBFA401B8442F3D20B
:10563000032070BD3068C10744BF0120306034686A
:1056400014F4F97F18BF00F043F814F4F97018BF90
:105650000120C0B270BD30B53B490C6824F44074E1
:105660000C600D6845F440750D600C6844F0010451
:105670000C6040F8042BBFF36F8F036030BD10B592
:1056800000F015F844F4007400F00BF8016010BD50
:1056900010B500F00CF844F4807400F002F80180BA
:1056A00010BD1460136843F0010313607047264A6D
:1056B000136823F4407313601468704730B5FFF724
:1056C000F6FF1460156845F001051560017030BDE6
:1056D0001E491C480A68D30605D5C26942F010026B
:1056E000C26110230B600A68930605D5C26942F0B7
:1056F0000802C26120230B600A68530605D5C269FF
:1057000042F00402C26140230B600A68130605D50B
:10571000C26942F00202C26180230B600A68D305AD
:1057200006D5C26942F00102C2614FF480730B607A
:105730000A68930705D5C26942F02002C2610220BF
:1057400008607047B02B0020103C02400C3C024027
:10575000043C024023016745AB89EFCD002200F0F5
:10576000E9BB00007047000018B595B0044614214D
:1057700001A8FBF7C9FD3C2106A8FBF7C5FD206881
:10578000B0F1A04F3AD1202100220691109206A834
:10579000FEF7CEFA08B1FBF76FFD0020984C0090A1
:1057A0000222216841F0010121604FF4E05120689C
:1057B00000F00100009000989248019102920021AF
:1057C000039103220A210591049201A9FBF7DEFD52
:1057D000606840F0800060600021009100226069F4
:1057E00040F480406061606900F48040009000985F
:1057F0004320FDF739F94320FDF753F916B010BDEA
:1058000000F57171D0F80404FFF7C0BA0B461C22F2
:105810005343C218D0F80404D2F80822FFF7E4BAC0
:105820000B461C225343C218D0F80404926CFFF7B5
:105830000DBBD0F80404FFF798BB10B50446E06830
:10584000022818BFFBF718FDD4F804040121FFF764
:1058500078FBD4F80404BDE81040FFF742BB10B554
:105860000446D4F80404FFF76FFB00F0BDF8206A8B
:1058700020B16548016841F00601016010BDD0F813
:105880000404FFF769BBD0F80404FFF78CBBD0F821
:105890000404FFF779BBD0F80404FFF793BBD0F8FA
:1058A0000404FFF791BB10B5017841BB574CC4F815
:1058B0000404C0F8C4424FF0A0402060062100203C
:1058C00002222061E06120626062A062E0622063E7
:1058D0006160E260A261204600F05CFB08B1FBF76A
:1058E000CBFC8021204600F0B0FF40220021204662
:1058F00000F08AFF80220121204600F085FF002071
:1059000010BD80B5D0F8C40200F0B2FBBDE8024083
:1059100081E010B51C461346D0F8C402224600F0C0
:1059200095FEBDE8104076E080B5D0F8C40200F0E6
:10593000B8FEEBE780B5D0F8C40200F0FCFEE5E766
:1059400080B5D0F8C40200F02CFFDFE7D0F8C42205
:1059500001F07F031C204343D018090602D590F8BC
:105960003E00704790F8FE01704780B5D0F8C40241
:1059700000F05BFECAE780B5D0F8C40200F0B4FEC8
:10598000C4E780B5D0F8C40200F09BFEBEE7D0F8B3
:10599000C40200F0A1BE38B504461B4D11B1012967
:1059A00015D031BD206A28B1FAF78AFE286820F0A8
:1059B00006002860206800F5606001684908490019
:1059C0000160D4F80404BDE83240FFF7C5BA00F026
:1059D0000BF8D4F80404FFF7B7FA206A18B1296865
:1059E00041F00601296031BD206800F56060016862
:1059F00041F0010101607047054870470000000058
:105A0000303802400000024010ED00E0141D00207C
:105A1000EC23002070470146002021B1022901D16A
:105A200001207047032070474178007840EA012048
:105A3000704700002DE9FC410E460546307810F015
:105A400060004FF0000805F5277709D0202818BF1F
:105A5000402825D1FA69936828469847804629E16D
:105A6000717809291CD8DFE811F000011901DD0067
:105A70001301DD0090000A00DD00EE00AA00ADF881
:105A800000807088010A012900F07180022962D02B
:105A9000032928D006291ED0072902D00F296CD04F
:105AA000C0E0287C0028FBD1F9690A6B6846904762
:105AB00007214170F288002A00F0F980BDF800103B
:105AC0000029EDD0914288BF1146ADF80010014683
:105AD000BDF80020D8E0287C0028E1D1F9694A6BA4
