:020000040800F2
:1000000000200020B10A0008290A0008310A00086F
:1000100000000000000000000000000000000000E0
:10002000000000000000000000000000390A000885
:100030000000000000000000430A00084D0A00080C
:10004000010B0008010B0008010B0008010B000860
:10005000010B0008010B0008010B0008010B000850
:10006000000000005D0A0008750A0008010B000886
:10007000010B0008010B0008010B0008010B000830
:10008000010B0008010B0008010B0008010B000820
:1000900000000000010B0008010B0008010B000824
:1000A000010B0008010B0008010B00088D0A000875
:0C00B000010B0008010B0008000000001C
:1000BC0010B5064C2378002B07D1054B002B02D032
:1000CC00044800E000BF0123237010BD0C00002089
:1000DC000000000054360008044B10B5002B03D070
:1000EC000349044800E000BF10BDC04600000000FA
:1000FC001000002054360008002243088B4274D3B1
:10010C0003098B425FD3030A8B4244D3030B8B420C
:10011C0028D3030C8B420DD3FF22090212BA030C15
:10012C008B4202D31212090265D0030B8B4219D3F6
:10013C0000E0090AC30B8B4201D3CB03C01A524116
:10014C00830B8B4201D38B03C01A5241430B8B425E
:10015C0001D34B03C01A5241030B8B4201D30B0347
:10016C00C01A5241C30A8B4201D3CB02C01A52416E
:10017C00830A8B4201D38B02C01A5241430A8B4231
:10018C0001D34B02C01A5241030A8B4201D30B021A
:10019C00C01A5241CDD2C3098B4201D3CB01C01A34
:1001AC00524183098B4201D38B01C01A524143093E
:1001BC008B4201D34B01C01A524103098B4201D32C
:1001CC000B01C01A5241C3088B4201D3CB00C01A99
:1001DC00524183088B4201D38B00C01A5241430811
:1001EC008B4201D34B00C01A5241411A00D2014636
:1001FC00524110467047FFE701B5002000F0F0F8BF
:10020C0002BDC0460029F7D076E7704703460B4382
:10021C007FD4002243088B4274D303098B425FD3F3
:10022C00030A8B4244D3030B8B4228D3030C8B421F
:10023C000DD3FF22090212BA030C8B4202D3121205
:10024C00090265D0030B8B4219D300E0090AC30BDA
:10025C008B4201D3CB03C01A5241830B8B4201D387
:10026C008B03C01A5241430B8B4201D34B03C01A70
:10027C005241030B8B4201D30B03C01A5241C30AE8
:10028C008B4201D3CB02C01A5241830A8B4201D359
:10029C008B02C01A5241430A8B4201D34B02C01A43
:1002AC005241030A8B4201D30B02C01A5241CDD2E8
:1002BC00C3098B4201D3CB01C01A524183098B4233
:1002CC0001D38B01C01A524143098B4201D34B011C
:1002DC00C01A524103098B4201D30B01C01A52417F
:1002EC00C3088B4201D3CB00C01A524183088B4206
:1002FC0001D38B00C01A524143088B4201D34B00EF
:10030C00C01A5241411A00D2014652411046704760
:10031C005DE0CA0F00D04942031000D34042534065
:10032C0000229C4603098B422DD3030A8B4212D325
:10033C00FC22890112BA030A8B420CD38901921157
:10034C008B4208D3890192118B4204D389013AD094
:10035C00921100E08909C3098B4201D3CB01C01A69
:10036C00524183098B4201D38B01C01A524143097C
:10037C008B4201D34B01C01A524103098B4201D36A
:10038C000B01C01A5241C3088B4201D3CB00C01AD7
:10039C00524183088B4201D38B00C01A5241D9D2EF
:1003AC0043088B4201D34B00C01A5241411A00D270
:1003BC000146634652415B10104601D34042002B6C
:1003CC0000D54942704763465B1000D3404201B5EB
:1003DC00002000F005F802BD0029F8D016E77047A0
:1003EC007047C046002B11D1002A0FD1002900D133
:1003FC00002802D00021C943080007B4024802A11A
:10040C004018029003BDC046D9FFFFFF03B46846F5
:10041C0001B5029800F006F8019B9E4602B00CBC98
:10042C007047C046F0B557464E464546DE46E0B5E9
:10043C0004000D009246994683B08B4230D82DD0E3
:10044C004946504600F0BAF829000600200000F09A
:10045C00B5F8331A9846203B34D49B4653465A463B
:10046C00934042461F00534693401E00AF423BD878
:10047C00AF4200D179E05B46A41BBD41002B00DAF2
:10048C0076E0002200230092019301235A46934008
:10049C000193012342469340009329E08242CFD935
:1004AC0000220023009201930C9B002B01D01C60B6
:1004BC005D600098019903B0F0BCBB46B246A946FA
:1004CC00A046F0BD42469B4620239B1A5246DA407A
:1004DC00414613004A468A40170042461F43534682
:1004EC0093401E00AF42C3D9002200230092019317
:1004FC004346002BD8D0FB0772081A4346467B08AC
:10050C000EE0AB4201D1A2420CD8A41A9D410120AD
:10051C0024196D410021013E24184D41002E06D0B6
:10052C00AB42EED9013E24196D41002EF8D1009852
:10053C0001995B4600196941002B24DB2B005A46BC
:10054C004646D3402A001C00F2405B461500002BA7
:10055C002ADB26009E40330026004746BE40320070
:10056C00801A9941009001919EE7A342BCD882E782
:10057C004246202300219B1A002200910192012265
:10058C00DA40019285E7424620239B1A2A00464610
:10059C009A402300F340464613432A001C00F240C5
:1005AC005B461500002BD4DA202342462F009B1B00
:1005BC0097402600DE403B003343CDE710B50029C1
:1005CC0003D100F007F8203002E0080000F002F838
:1005DC0010BDC0461C2101231B04984201D3000C02
:1005EC0010391B0A984201D3000A08391B0998429A
:1005FC0001D30009043902A2105C40187047C046B0
:10060C0004030202010101010000000000000000CF
:10061C0080B584B000AF0F4B1B68FB600E4B1B68A2
:10062C00BB60BB687B6072B6C0460C4B00221A6084
:10063C000A4B00225A60094B00229A60FB683B600F
:10064C003B6883F30888C0467B689847C046BD4624
:10065C0004B080BD002000080420000810E000E079
:10066C0080B500AF00F048FA00F00AF800F0C4F8CA
:10067C0000F09CF800F04CF8FFF7CAFFC046FDE70D
:10068C0090B593B000AF10243B19180038231A0012
:10069C00002102F0ADFF3B00180010231A000021CE
:1006AC0002F0A6FF80239B00180000F045FF3B19C9
:1006BC0002221A603B1980225200DA603B19002298
:1006CC001A613B1940225A613B190022DA613B192D
:1006DC00180000F07DFF031E01D000F0AFF83B00C6
:1006EC0007221A603B0000225A603B0000229A60ED
:1006FC003B000022DA603B000021180001F082FA76
:10070C00031E01D000F09AF8C046BD4613B090BD50
:10071C0080B500AF234B244A1A60224BE1225202CF
:10072C005A60204B00229A601E4B0022DA601D4B4F
:10073C0000221A611B4B0C225A611A4B00229A613F
:10074C00184B0022DA61174B00221A62154B00225B
:10075C005A62144B00229A62124B180001F076FD7B
:10076C00031E01D000F06AF80E4B0021180002F0B5
:10077C005FFE031E01D000F061F80A4B0021180047
:10078C0002F096FE031E01D000F058F8054B18003D
:10079C0002F014FE031E01D000F050F8C046BD4616
:1007AC0080BDC046280000200038014080B582B0D2
:1007BC0000AF104B9A6B0F4B01210A439A630D4B00
:1007CC009B6B012213407B607B6800220021092077
:1007DC0000F0C4FA092000F0D6FA002200210A2009
:1007EC0000F0BCFA0A2000F0CEFAC046BD4602B0BA
:1007FC0080BDC0460010024080B582B000AF0E4BE9
:10080C005A6B0D4B01210A435A630B4B5B6B012254
:10081C0013407B607B68084B5A6B074B02210A43E1
:10082C005A63054B5B6B022213403B603B68C0462E
:10083C00BD4602B080BDC0460010024080B500AF7E
:10084C0072B6C046C046FDE780B582B000AF0F4B14
:10085C001A6C0E4B01210A431A640C4B1B6C0122BF
:10086C0013407B607B68094BDA6B084B8021490590
:10087C000A43DA63054BDA6B80235B0513403B605C
:10088C003B68C046BD4602B080BDC0460010024069
:10089C0090B595B000AF78603C23FB18180014237A
:1008AC001A00002102F0A4FE14243B19180028237E
:1008BC001A00002102F09CFE7B681B68504A934290
:1008CC0000D098E03B1901221A603B1900225A60B3
:1008DC003B19180001F040FB031E01D0FFF7AEFFDF
:1008EC00484B1A6C474B8021C9010A431A64454B8B
:1008FC001A6C8023DB0113403B613B69414B5A6B03
:10090C00404B02210A435A633E4B5B6B022213405D
:10091C00FB60FB683C217B18C0221A607B1802220A
:10092C005A607B1800229A607B180022DA607B18D0
:10093C0000221A617B18344A1900100000F098FC50
:10094C00324B334A1A60314B32225A602F4B002201
:10095C009A602E4B0022DA602C4B80221A612B4BB2
:10096C0000225A61294B00229A61284B0022DA613D
:10097C00264B00221A62254B180000F021FA031EA8
:10098C0001D0FFF75BFF7B688021204A5A501F4B38
:10099C007A689A621F4B204A1A601E4B33225A60A7
:1009AC001C4B10229A601B4B0022DA60194B8022E0
:1009BC001A61184B00225A61164B00229A61154B92
:1009CC002022DA61134B00221A62124B180000F03D
:1009DC00F7F9031E01D0FFF731FF7B680D4ADA6788
:1009EC000C4B7A689A62002200211B2000F0B6F9A9
:1009FC001B2000F0C8F9C046BD4615B090BDC046DE
:100A0C00003801400010024000040050BC000020DF
:100A1C0008000240180100201C00024080B500AF05
:100A2C00C046FDE780B500AFC046FDE780B500AF1E
:100A3C00C046BD4680BD80B500AFC046BD4680BD3A
:100A4C0080B500AF00F0C2F8C046BD4680BD0000C6
:100A5C0080B500AF034B180000F008FBC046BD4644
:100A6C0080BDC046BC00002080B500AF034B180011
:100A7C0000F0FCFAC046BD4680BDC04618010020FF
:100A8C0080B500AF034B180001F036FCC046BD46E4
:100A9C0080BDC0462800002080B500AFC046BD46D2
:100AAC0080BD00000D488546FFF7F6FF0C480D4948
:100ABC000D4A002302E0D458C4500433C4188C42AD
:100ACC00F9D30A4A0A4C002301E013600432A24213
:100ADC00FBD302F095FDFFF7C3FDFEE700200020DD
:100AEC00000000200C000020043700080C0000203F
:100AFC0078010020FEE7000080B582B000AFFB1D3E
:100B0C0000221A700B4B1A680A4B802149000A43C9
:100B1C001A60032000F010F8031E03D0FB1D012205
:100B2C001A7001E0FFF790FEFB1D1B781800BD4604
:100B3C0002B080BD0020024090B585B000AF786057
:100B4C000F23FB1800221A701D4B1B78002B2BD087
:100B5C001C4B1C681A4B1B781900FA239800FFF7E2
:100B6C00CBFA030019002000FFF7C6FA03001800A7
:100B7C0000F019F9031E12D17B68032B0AD879688F
:100B8C0001235B420022180000F0E8F80E4B7A6853
:100B9C001A600DE00F23FB1801221A7008E00F23D6
:100BAC00FB1801221A7003E00F23FB1801221A70A4
:100BBC000F23FB181B781800BD4605B090BDC0462E
:100BCC0008000020000000200400002080B500AFC9
:100BDC00054B1B781A00054B1B68D218034B1A6087
:100BEC00C046BD4680BDC0460800002074010020F0
:100BFC0080B500AF024B1B681800BD4680BDC046D7
:100C0C007401002080B582B000AF0200FB1D1A7089
:100C1C00FB1D1B787F2B09D8FB1D1B781A001F238B
:100C2C001A40044B012191400A001A60C046BD468F
:100C3C0002B080BD00E100E090B583B000AF0200CF
:100C4C003960FB1D1A70FB1D1B787F2B28D82F4A8F
:100C5C00FB1D1B785BB29B08C0339B009B58FA1D95
:100C6C001278110003220A40D200FF2191400A00A1
:100C7C00D2431A4011003B689B01FF221A40FB1D16
:100C8C001B78180003230340DB009A401F48FB1D10
:100C9C001B785BB29B080A43C0339B001A5031E0AF
:100CAC001B4AFB1D1B7819000F230B40083B9B08AC
:100CBC0006339B00D31804331B68FA1D12781100FD
:100CCC0003220A40D200FF2191400A00D2431A406D
:100CDC0011003B689B01FF221A40FB1D1B7818007A
:100CEC0003230340DB009A400948FB1D1B781C00C2
:100CFC000F232340083B9B080A4306339B00C31871
:100D0C0004331A60C046BD4603B090BD00E100E05C
:100D1C0000ED00E080B582B000AF78607B685A1EB1
:100D2C0080235B049A4201D3012310E00A4B7A68BA
:100D3C00013A5A6001235B4203211800FFF77CFF44
:100D4C00054B00229A60044B07221A6000231800FE
:100D5C00BD4602B080BDC04610E000E080B584B056
:100D6C0000AFB9607A600F217B18021C1A70BA6848
:100D7C007B181B785BB211001800FFF75DFFC046B3
:100D8C00BD4604B080BD80B582B000AF0200FB1D33
:100D9C001A70FB1D1B785BB21800FFF733FFC046BF
:100DAC00BD4602B080BD80B582B000AF78607B6874
:100DBC001800FFF7AFFF03001800BD4602B080BD5E
:100DCC0080B582B000AF78607B68002B01D1012325
:100DDC0077E07B681B683D4A9446634414211800F5
:100DEC00FFF78AF903009A007B681A647B68252256
:100DFC00022199547B681B681A687B681B6834490C
:100E0C000A401A607B681B6819687B689A687B6863
:100E1C00DB681A437B681B691A437B685B691A435E
:100E2C007B689B691A437B68DB691A437B681B6A86
:100E3C001A437B681B680A431A607B68180000F031
:100E4C00C7F97B689A688023DB019A4202D17B68E0
:100E5C0000225A607B685A687B685B6C3F210A40B1
:100E6C001A607B689B6C7A68D26C5A607B685B6892
:100E7C00002B11D07B685B68042B0DD87B681800A5
:100E8C0000F0D2F97B681B6D00221A607B685B6DE9
:100E9C007A68926D5A6008E07B6800221A657B685C
:100EAC0000225A657B6800229A657B680022DA630F
:100EBC007B682522012199547B68242200219954B6
:100ECC0000231800BD4602B080BDC046F8FFFDBF30
:100EDC000F80FFFF80B582B000AF78607B68002B7D
:100EEC0001D1012350E07B6825229B5CDBB2022BF5
:100EFC0008D07B680422DA637B6824220021995491
:100F0C00012341E07B681B681A687B681B68012120
:100F1C008A431A607B681B681A687B681B680E2101
:100F2C008A431A607B685B6C1A687B685B6C184937
:100F3C000A401A60174B59687B681B6C1C221340C3
:100F4C0001229A40134B0A435A607B689B6C7A6867
:100F5C00D26C5A607B681B6D002B0CD07B681B6DB0
:100F6C001A687B681B6D0A490A401A607B685B6DC6
:100F7C007A68926D5A607B682522012199547B68AE
:100F8C0024220021995400231800BD4602B080BDD4
:100F9C00FFFEFFFF0000024080B584B000AF786018
:100FAC000F217B1800221A707B6825229B5CDBB218
:100FBC00022B06D07B680422DA637B1801221A709C
:100FCC0049E07B681B681A687B681B6801218A43AF
:100FDC001A607B681B681A687B681B680E218A4341
:100FEC001A607B685B6C1A687B685B6C1D490A40F5
:100FFC001A601D4B59687B681B6C1C221340012224
:10100C009A40194B0A435A607B689B6C7A68D26C85
:10101C005A607B681B6D002B0CD07B681B6D1A68AB
:10102C007B681B6D0F490A401A607B685B6D7A68A0
:10103C00926D5A607B682522012199547B68242289
:10104C00002199547B689B6B002B04D07B689B6BB5
:10105C007A68100098470F23FB181B781800BD46C0
:10106C0004B080BDFFFEFFFF0000024080B584B0DD
:10107C0000AF7860554B1B68FB607B681B681B6876
:10108C00BB607B681B6C1C22134004229A4013002B
:10109C00FA68134027D0BB680422134023D07B6826
:1010AC001B681B682022134007D17B681B681A68D9
:1010BC007B681B6804218A431A60444B59687B681F
:1010CC001B6C1C22134004229A40404B0A435A606A
:1010DC007B681B6B002B00D173E07B681B6B7A6801
:1010EC00100098476DE07B681B6C1C221340022299
:1010FC009A401300FA6813402ED0BB6802221340AA
:10110C002AD07B681B681B68202213400BD17B689C
:10111C001B681A687B681B680A218A431A607B6803
:10112C00252201219954294B59687B681B6C1C2280
:10113C00134002229A40254B0A435A607B682422B2
:10114C00002199547B68DB6A002B3AD07B68DB6A00
:10115C007A681000984734E07B681B6C1C221340A3
:10116C0008229A401300FA6813402BD0BB6808225F
:10117C00134027D07B681B681A687B681B680E219C
:10118C008A431A60114B59687B681B6C1C221340F4
:10119C0001229A400D4B0A435A607B680122DA63A4
:1011AC007B682522012199547B68242200219954C3
:1011BC007B685B6B002B05D07B685B6B7A681000DF
:1011CC009847C046C046BD4604B080BD00000240F2
:1011DC0080B584B000AF78607B681B6C9B08104AAC
:1011EC00944663449B001A007B685A647B681B68B6
:1011FC001A00FF231340083B14211800FEF77CFF54
:10120C000300FB607B68074A9A64FB681F2213404B
:10121C0001229A407B68DA64C046BD4604B080BDAA
:10122C00008200108008024080B584B000AF786066
:10123C007B685B683F221340FB60FB680A4A94465C
:10124C0063449B001A007B681A657B68074A5A65E1
:10125C00FB68013B0322134001229A407B689A658C
:10126C00C046BD4604B080BD3F820010400902401C
:10127C0080B586B000AF7860396000237B6147E1B0
:10128C003B681B6801217A6991400A001340FB609E
:10129C00FB68002B00D138E13B685B6803221340EC
:1012AC00012B05D03B685B6803221340022B30D125
:1012BC007B689B683B617B695B0003229A4013004F
:1012CC00DA433B6913403B613B68DA687B695B003E
:1012DC009A4013003A6913433B617B683A699A6000
:1012EC007B685B683B6101227B699A401300DA439F
:1012FC003B6913403B613B685B681B0901221A4048
:10130C007B699A4013003A6913433B617B683A69E5
:10131C005A603B685B6803221340032B17D07B6831
:10132C00DB683B617B695B0003229A401300DA4364
:10133C003B6913403B613B689A687B695B009A4050
:10134C0013003A6913433B617B683A69DA603B6886
:10135C005B6803221340022B23D17B69DA087B687C
:10136C0008329200D3583B617B69072213409B00E3
:10137C000F229A401300DA433B6913403B613B68F0
:10138C001A697B6907210B409B009A4013003A694C
:10139C0013433B617B69DA087B6808329200396938
:1013AC00D1507B681B683B617B695B0003229A40D0
:1013BC001300DA433B6913403B613B685B680322D3
:1013CC001A407B695B009A4013003A6913433B61F6
:1013DC007B683A691A603B685A68C0239B021340C9
:1013EC0000D192E0504A7B699B0818339B009B58B4
:1013FC003B617B6903221340DB000F229A401300F0
:10140C00DA433B6913403B617A68A023DB059A42BF
:10141C0013D07B68454A93420DD07B68444A934273
:10142C0007D07B68434A934201D1032306E005238E
:10143C0004E0022302E0012300E000237A69032187
:10144C000A40D20093403A6913433B6136497B69A9
:10145C009B0818339B003A695A50334B1B683B610D
:10146C00FB68DA433B6913403B613B685A68802355
:10147C005B03134003D03A69FB6813433B612A4B6F
:10148C003A691A60284B5B683B61FB68DA433B693D
:10149C0013403B613B685A6880239B03134003D085
:1014AC003A69FB6813433B611F4B3A695A601E4A09
:1014BC008423D3583B61FB68DA433B6913403B619F
:1014CC003B685A6880239B02134003D03A69FB683F
:1014DC0013433B61144984223B698B50124A80238D
:1014EC00D3583B61FB68DA433B6913403B613B6873
:1014FC005A6880235B02134003D03A69FB6813439C
:10150C003B61094980223B698B507B6901337B61CC
:10151C003B681A687B69DA40131E00D0B0E6C046FF
:10152C00C046BD4606B080BD001802400004005005
:10153C0000080050000C005080B584B000AF7860FB
:10154C00194B1B68194A13401900174B7A680A4348
:10155C001A607A6880239B009A421FD1144B1A6838
:10156C0013005B009B185B0012491800FEF7C4FDCA
:10157C0003000133FB6008E0FB68002B03D0FB6821
:10158C00013BFB6001E0032309E0074B5A69802310
:10159C00DB001A408023DB009A42EDD000231800B8
:1015AC00BD4604B080BDC04600700040FFF9FFFF8F
:1015BC000000002040420F0080B500AF034B9A683A
:1015CC00E023DB0113401800BD4680BD0010024033
:1015DC0080B588B000AF78607B68002B01D1012307
:1015EC00FEE27B681B680122134000D17CE0C34BF8
:1015FC009B6838221340BB61C04BDB68032213404D
:10160C007B61BB69102B02D17B69032B02D0BB69B8
:10161C00082B0BD1B94B1A6880239B02134062D064
:10162C007B685B68002B5ED10123D9E27B685A682A
:10163C0080235B029A4207D1B04B1A68AF4B8021D2
:10164C0049020A431A6020E07B685A68A023DB0237
:10165C009A420ED1A94B1A68A84B8021C9020A43A1
:10166C001A60A64B1A68A54B802149020A431A60DE
:10167C000BE0A24B1A68A14BA1490A401A609F4B80
:10168C001A689E4B9F490A401A607B685B68002B66
:10169C0014D0FFF7ADFA03003B6108E0FFF7A8FA9E
:1016AC0002003B69D31A642B01D9032398E2934BB4
:1016BC001A6880239B021340F0D015E0FFF798FACC
:1016CC0003003B6108E0FFF793FA02003B69D31A71
:1016DC00642B01D9032383E2884B1A6880239B0275
:1016EC001340F0D100E0C0467B681B680222134017
:1016FC0000D199E0814B9B6838221340BB617F4B32
:10170C00DB68032213407B61BB69102B02D17B6920
:10171C00022B02D0BB69002B35D1784B1A68802381
:10172C00DB00134005D07B68DB68002B01D1012363
:10173C0056E2724B5B68744A134019007B685B6914
:10174C001A026E4B0A435A60BB69002B12D16B4BC9
:10175C001B686E4A134019007B681A69674B0A4371
:10176C001A60664B1B68DB0A07221340684ADA4092
:10177C00684B1A60684B1B681800FFF7DDF9031EF5
:10178C0051D001232CE27B68DB68002B30D05B4B03
:10179C001B685E4A134019007B681A69574B0A4351
:1017AC001A60564B1A68554B802149000A431A603F
:1017BC00FFF71EFA03003B6108E0FFF719FA02007D
:1017CC003B69D31A022B01D9032309E24B4B1A684C
:1017DC008023DB001340F0D0484B5B684A4A13402F
:1017EC0019007B685B691A02444B0A435A601BE080
:1017FC00424B1A68414B49490A401A60FFF7F8F905
:10180C0003003B6108E0FFF7F3F902003B69D31AD0
:10181C00022B01D90323E3E1384B1A688023DB0048
:10182C001340F0D100E0C0467B681B6808221340CF
:10183C0047D0324B9B6838221340182B0AD12F4BC0
:10184C001B6E022213403CD07B689B69002B38D165
:10185C000123C5E17B689B69002B19D0274B1A6EBD
:10186C00264B01210A431A66FFF7C2F903003B61BC
:10187C0008E0FFF7BDF902003B69D31A022B01D92E
:10188C000323ADE11D4B1B6E02221340F1D018E077
:10189C001A4B1A6E194B01218A431A66FFF7A8F9E5
:1018AC0003003B6108E0FFF7A3F902003B69D31A80
:1018BC00022B01D9032393E1104B1B6E0222134020
:1018CC00F1D17B681B680422134000D1C6E01F23B2
:1018DC00FB1800221A70094B9B6838221340202BEE
:1018EC001ED1064BDB6D0222134000D1B6E07B68A3
:1018FC009B68002B00D0B1E0012371E10010024085
:10190C00FFFFFEFFFFFFFBFFFF80FFFFFFC7FFFF97
:10191C000024F4000000002004000020FFFEFFFF64
:10192C00B14BDA6B80235B05134001D1012300E03E
:10193C000023002B11D0AC4BDA6BAB4B802149054B
:10194C000A43DA63A84BDA6B80235B051340FB6018
:10195C00FB681F23FB1801221A70A44B1A68802302
:10196C005B0013401AD1A14B1A68A04B802149008F
:10197C000A431A60FFF73CF903003B6108E0FFF7EC
:10198C0037F902003B69D31A022B01D9032327E153
:10199C00964B1A6880235B001340F0D07B689B68E1
:1019AC00012B06D1904BDA6D8F4B01210A43DA657E
:1019BC001CE07B689B68052B0CD18B4BDA6D8A4B3A
:1019CC0004210A43DA65884BDA6D874B01210A43FF
:1019DC00DA650BE0844BDA6D834B01218A43DA65BF
:1019EC00814BDA6D804B04218A43DA657B689B68F6
:1019FC00002B14D0FFF7FCF803003B6109E0FFF764
:101A0C00F7F802003B69D31A794A934201D90323B0
:101A1C00E6E0754BDB6D02221340F0D013E0FFF7CC
:101A2C00E7F803003B6109E0FFF7E2F802003B69CD
:101A3C00D31A6F4A934201D90323D1E06A4BDB6D71
:101A4C0002221340F0D11F23FB181B78012B05D168
:101A5C00654BDA6B644B67490A40DA637B68DB6978
:101A6C00002B00D1BBE0604B9B6838221340102B3D
:101A7C0000D17BE07B68DB69022B56D15A4B1A688C
:101A8C00594B5D490A401A60FFF7B2F803003B61FD
:101A9C0008E0FFF7ADF802003B69D31A022B01D91D
:101AAC0003239DE0504B1A6880239B041340F0D114
:101ABC004D4BDB68514A134019007B681A6A7B68EE
:101ACC005B6A1A437B689B6A1B021A437B68DB6A5E
:101ADC001A437B681B6B1A437B685B6B1A43424B44
:101AEC000A43DA60404B1A683F4B802149040A4391
:101AFC001A603D4BDA683C4B802149050A43DA6099
:101B0C00FFF776F803003B6108E0FFF771F802007D
:101B1C003B69D31A022B01D9032361E0324B1A68BB
:101B2C0080239B041340F0D059E02F4B1A682E4BA6
:101B3C0031490A401A60FFF75BF803003B6108E08B
:101B4C00FFF756F802003B69D31A022B01D9032385
:101B5C0046E0254B1A6880239B041340F0D1224B9E
:101B6C00DA68214B26490A40DA6038E07B68DB6989
:101B7C00012B01D1012333E01B4BDB687B617B69BB
:101B8C0003221A407B681B6A9A4226D17B69702219
:101B9C001A407B685B6A9A421FD17A69FE23DB018B
:101BAC001A407B689B6A1B029A4216D17A69F82309
:101BBC009B031A407B68DB6A9A420ED17A69E02358
:101BCC001B051A407B681B6B9A4206D17B695B0F25
:101BDC005A077B685B6B9A4201D0012300E000231B
:101BEC001800BD4608B080BD0010024000700040D7
:101BFC0088130000FFFFFFEFFFFFFFFE8C80C11179
:101C0C00FCFFFEEE80B584B000AF786039607B6875
:101C1C00002B01D10123E9E0764B1B68072213400E
:101C2C003A689A421ED9734B1B68072293431900DA
:101C3C00704B3A680A431A60FEF7DAFF0300FB6048
:101C4C0009E0FEF7D5FF0200FB68D31A6A4A9342FB
:101C5C0001D90323CAE0674B1B68072213403A687B
:101C6C009A42EED17B681B680222134015D07B6828
:101C7C001B680422134006D0604B9A685F4BE0212E
:101C8C00C9010A439A605D4B9B685D4A1340190079
:101C9C007B689A68594B0A439A607B681B680122DF
:101CAC00134057D07B685B68012B07D1534B1A68E4
:101CBC0080239B0213402BD1012397E07B685B6848
:101CCC00022B07D14D4B1A6880239B0413401FD164
:101CDC0001238BE07B685B68002B07D1474B1A68AC
:101CEC008023DB00134013D101237FE07B685B680A
:101CFC00032B06D1414B1B6E0222134008D101234A
:101D0C0074E03E4BDB6D0222134001D101236DE0E8
:101D1C003A4B9B680722934319007B685A68374BF0
:101D2C000A439A60FEF764FF0300FB6009E0FEF7CC
:101D3C005FFF0200FB68D31A2F4A934201D9032399
:101D4C0054E02E4B9B6838221A407B685B68DB00A2
:101D5C009A42ECD1274B1B68072213403A689A42EF
:101D6C001ED2244B1B68072293431900214B3A685F
:101D7C000A431A60FEF73CFF0300FB6009E0FEF724
:101D8C0037FF0200FB68D31A1B4A934201D9032385
:101D9C002CE0184B1B68072213403A689A42EED18C
:101DAC007B681B680422134009D0144B9B68154AAE
:101DBC00134019007B68DA68104B0A439A6000F0F4
:101DCC0029F801000D4B9B681B0A0F221A400E4B81
:101DDC009200D3581F2213400A00DA400B4B1A60B2
:101DEC000B4B1B681800FEF7A7FE03001800BD463E
:101DFC0004B080BD00200240881300000010024097
:101E0C00FFF0FFFFFF8FFFFF6C3600080000002083
:101E1C000400002080B586B000AF3C4B9B68382294
:101E2C0013400FD1394B1B68DB0A072213400122E8
:101E3C009A4013003B6039683548FEF75DF90300A2
:101E4C003B615DE0314B9B6838221340082B02D17B
:101E5C00304B3B6154E02D4B9B6838221340102BC8
:101E6C0038D12A4BDB6803221340FB60274BDB681D
:101E7C001B09072213400133BB60FB68032B0DD1F8
:101E8C00B9682448FEF738F9030019001F4BDB68CA
:101E9C001B0A7F2213404B437B610DE0B9681C4841
:101EAC00FEF72AF903001900184BDB681B0A7F2286
:101EBC0013404B437B61C046144BDB685B0F07221E
:101ECC00134001337B6079687869FEF715F90300DC
:101EDC003B6115E00D4B9B6838221340202B03D13E
:101EEC0080231B023B610BE0084B9B68382213409C
:101EFC00182B03D1FA23DB013B6101E000233B618A
:101F0C003B691800BD4606B080BDC04600100240BB
:101F1C000024F40000127A0080B500AF024B1B685D
:101F2C001800BD4680BDC04600000020B0B500AF13
:101F3C00FFF7F2FF0400FFF73FFB03001A0B054B02
:101F4C009200D3581F221340DC4023001800BD46DA
:101F5C00B0BDC046AC36000880B586B000AF786026
:101F6C001323FB1800221A701223FB1800221A707C
:101F7C007B681A6880239B02134000D1A3E01120D8
:101F8C003B1800221A70A54BDA6B80235B051340BB
:101F9C0010D1A24BDA6BA14B802149050A43DA63BD
:101FAC009E4BDA6B80235B051340BB60BB683B1810
:101FBC0001221A709A4B1A68994B802149000A43E6
:101FCC001A60FEF715FE0300FB600BE0FEF710FE37
:101FDC000200FB68D31A022B04D91323FB1803222B
:101FEC001A7005E08E4B1A6880235B001340EDD00D
:101FFC001323FB181B78002B54D1884BDA6DC023AC
:10200C009B0013407B617B69002B19D07B685B6A5A
:10201C007A699A4214D0814BDB6D824A13407B6102
:10202C007E4BDA6D7D4B802149020A43DA657B4B8E
:10203C00DA6D7A4B7C490A40DA65784B7A69DA6555
:10204C007B690122134016D0FEF7D2FD0300FB6022
:10205C000CE0FEF7CDFD0200FB68D31A734A9342E5
:10206C0004D91323FB1803221A7004E06B4BDB6DAD
:10207C0002221340EDD01323FB181B78002B0AD13E
:10208C00664BDB6D674A134019007B685A6A634BD9
:10209C000A43DA650CE01223FB181322BA181278E3
:1020AC001A7005E01223FB181322BA1812781A7052
:1020BC001123FB181B78012B05D1584BDA6B574BAE
:1020CC005B490A40DA637B681B680122134009D024
:1020DC00524B5B6D0322934319007B685A684F4B3C
:1020EC000A435A657B681B681022134009D04B4B7E
:1020FC005B6D504A134019007B689A68474B0A4342
:10210C005A657B681A6880239B00134009D0434BA7
:10211C005B6D494A134019007B685A693F4B0A436F
:10212C005A657B681A688023DB00134009D03B4B4F
:10213C005B6D424A134019007B689A69374B0A431E
:10214C005A657B681B682022134009D0334B5B6DAA
:10215C003B4A134019007B68DA68304B0A435A65D6
:10216C007B681A688023DB01134015D02B4B5B6D09
:10217C009B0099087B68DA69284B0A435A657B688F
:10218C00DA698023DB059A4206D1244BDA68234BAB
:10219C00802149020A43DA607B681A6880239B031A
:1021AC00134016D01D4B5B6D264A134019007B68FB
:1021BC001A6A1A4B0A435A657B681A6A8023DB0336
:1021CC009A4206D1154BDA68144B802149040A4314
:1021DC00DA607B681A6880231B01134016D00F4B02
:1021EC005B6D194A134019007B681A690B4B0A4343
:1021FC005A657B681A698023DB019A4206D1074B2A
:10220C00DA68064B802149020A43DA601223FB1874
:10221C001B781800BD4606B080BDC04600100240B9
:10222C0000700040FFFCFFFFFFFFFEFF8813000063
:10223C00FFFFFFEFFFF3FFFFFFFFF3FFFFFFCFFFFA
:10224C00FFCFFFFFFFFFBFFFFF3FFFFF80B582B057
:10225C0000AF78607B68002B01D1012346E07B68DE
:10226C0088229B58002B07D17B688422002199542B
:10227C007B681800FEF70CFB7B68882224219950A0
:10228C007B681B681A687B681B6801218A431A608B
:10229C007B689B6A002B03D07B68180000F006FE5D
:1022AC007B68180000F08AFB0300012B01D101238D
:1022BC001CE07B681B685A687B681B680D490A40E8
:1022CC005A607B681B689A687B681B682A218A4362
:1022DC009A607B681B681A687B681B6801210A433B
:1022EC001A607B68180000F095FE03001800BD46CC
:1022FC0002B080BDFFB7FFFFB0B5AAB000AF7860E9
:10230C007B681B68DB69A422B9180B607B681B68AF
:10231C001B68A02039180B607B681B689B689C2489
:10232C0039190B601100BB181B68A24A1340982284
:10233C00BD182B60BB181B68002B1AD17B181B68AF
:10234C002022134015D03B181B682022134005D1C6
:10235C003B191A6880235B0513400AD07B685B6FBE
:10236C00002B00D1FBE27B685B6F7A68100098470A
:10237C00F5E29823FB181B68002B00D122E19C236B
:10238C00FB181B688C4A134006D1A023FB181B6852
:10239C008A4A134000D115E1A423FB181B680122C3
:1023AC00134012D0A023FB181A6880235B00134043
:1023BC000BD07B681B6801221A627B6890229B58A9
:1023CC0001221A437B6890215A50A423FB181B68E6
:1023DC000222134011D09C23FB181B6801221340CE
:1023EC000BD07B681B6802221A627B6890229B5878
:1023FC0004221A437B6890215A50A423FB181B68B3
:10240C000422134011D09C23FB181B68012213409B
:10241C000BD07B681B6804221A627B6890229B5845
:10242C0002221A437B6890215A50A423FB181B6884
:10243C000822134017D0A023FB181B68202213403E
:10244C0005D19C23FB181B685B4A13400BD07B689F
:10245C001B6808221A627B6890229B5808221A4338
:10246C007B6890215A50A423FB181A6880231B0107
:10247C00134013D0A023FB181A688023DB041340ED
:10248C000CD07B681B68802212011A627B68902238
:10249C009B5820221A437B6890215A507B689022CB
:1024AC009B58002B00D15CE2A423FB181B68202254
:1024BC00134015D0A023FB181B682022134006D113
:1024CC009C23FB181A6880235B05134008D07B689B
:1024DC005B6F002B04D07B685B6F7A6810009847A9
:1024EC007B6890229B5894217A1813607B681B6838
:1024FC009B6840221340402B04D07B181B68282279
:10250C0013404CD07B68180000F09EFE7B681B6863
:10251C009B6840221340402B3CD1EFF310833B6669
:10252C003B6E90203A18136001237B667B6E83F31D
:10253C001088C0467B681B689A687B681B684021C2
:10254C008A439A603B181B68BB66BB6E83F310888A
:10255C00C0467B6880229B58002B16D07B6880225B
:10256C009B58174A9A637B6880229B581800FEF789
:10257C0013FD031E1CD07B6880229B589B6B7A68D2
:10258C00802152581000984712E07B68180000F028
:10259C0001FA0DE07B68180000F0FCF908E07B689C
:1025AC00180000F0F7F97B68902200219950D8E1CF
:1025BC00C046D6E10F080000010000102001000405
:1025CC00213300087B68DB6E012B00D05DE1A42376
:1025DC00FB181B681022134000D156E1A023FB18F6
:1025EC001B681022134000D14FE17B681B6810223E
:1025FC001A627B681B689B6840221340402B00D0FA
:10260C00C3E07B6880229B581B685A687E217B182C
:10261C001A807B181B88002B00D197E07B685C220A
:10262C009B5A7A1812889A4200D38FE07B687A18EA
:10263C005E2112885A527B6880229B581B681B684B
:10264C002022134070D1EFF310833B633B6BBB67CD
:10265C0001237B637B6B83F31088C0467B681B680C
:10266C001A687B681B68C4490A401A60BB6FBB635D
:10267C00BB6B83F31088C046EFF31083FB63FB6BDB
:10268C007B6701233B643B6C83F31088C0467B68FB
:10269C001B689A687B681B6801218A439A607B6F70
:1026AC007B647B6C83F31088C046EFF31083BB64B0
:1026BC00BB6C3B670123FB64FB6C83F31088C04647
:1026CC007B681B689A687B681B6840218A439A6008
:1026DC003B6F3B653B6D83F31088C0467B688C2257
:1026EC00202199507B680022DA66EFF310837B651A
:1026FC007B6DFB660123BB65BB6D83F31088C04605
:10270C007B681B681A687B681B6810218A431A60F7
:10271C00FB6EFB65FB6D83F31088C0467B688022E3
:10272C009B581800FEF7D6FB7B6802221A677B6861
:10273C005C229A5A7B685E215B5A9BB2D31A9AB27E
:10274C007B681100180000F02DF90CE17B685C220D
:10275C009B5A7E22BA1812889A4200D003E17B68F9
:10276C0080229B581B681B6820221340202B00D012
:10277C00F9E07B6802221A677B685C229A5A7B68B4
:10278C001100180000F00EF9EDE07B685C22995AFC
:10279C007B685E229B5A9AB28E203B188A1A1A804A
:1027AC007B685E229B5A9BB2002B00D1DDE03B186C
:1027BC001B88002B00D1D8E0EFF31083FB60FB6883
:1027CC0088243A19136001233B613B6983F3108819
:1027DC00C0467B681B681A687B681B6867490A409F
:1027EC001A603B191B687B617B6983F31088C046B8
:1027FC00EFF31083BB61BB6984243A191360012386
:10280C00FB61FB6983F31088C0467B681B689A6880
:10281C007B681B685A490A409A603B191B683B62EB
:10282C003B6A83F31088C0467B688C222021995028
:10283C007B680022DA667B6800225A67EFF310830C
:10284C007B627B6A80243A1913600123BB62BB6AEA
:10285C0083F31088C0467B681B681A687B681B680A
:10286C0010218A431A603B191B68FB62FB6A83F3D5
:10287C001088C0467B6802221A673B181A887B684E
:10288C001100180000F08EF86FE0A423FB181A68F2
:10289C0080235B03134010D09C23FB181A68802301
:1028AC00DB03134009D07B681B68802252031A6239
:1028BC007B68180000F069FD5AE0A423FB181B6824
:1028CC008022134016D0A023FB181B6880221340D3
:1028DC0006D19C23FB181A6880231B04134009D0D3
:1028EC007B689B6F002B42D07B689B6F7A681000D3
:1028FC0098473CE0A423FB181B68402213400AD0E5
:10290C00A023FB181B684022134004D07B681800DE
:10291C0000F00FFD2CE0A423FB181A6880231B0485
:10292C0013400BD0A023FB181A688023DB0513403F
:10293C0004D07B68180000F038FD19E0A423FB18C4
:10294C001A6880235B04134012D0A023FB181B6869
:10295C00002B0DDA7B68180000F01FFD08E0C04664
:10296C0006E0C04604E0C04602E0C04600E0C046B7
:10297C00BD462AB0B0BDC046FFFEFFFFDFFEFFFF25
:10298C00FEFFFFEF80B582B000AF7860C046BD4659
:10299C0002B080BD80B582B000AF7860C046BD4645
:1029AC0002B080BD80B582B000AF78600A00BB1C5D
:1029BC001A80C046BD4602B080BD0000B0B590B0D4
:1029CC0000AF78621A2320229B18DB1900221A70A0
:1029DC007B6A9A687B6A1B691A437B6A5B691A4338
:1029EC007B6ADB691343FB637B6A1B681B68C44A05
:1029FC00134019007B6A1A68FB6B0B4313607B6AEC
:102A0C001B685B68BF4A134018007B6AD9687B6AF5
:102A1C001A6803000B4353607B6A9B69FB637B6AF8
:102A2C001B68B94A934204D07B6A1B6AFA6B134346
:102A3C00FB637B6A1B689B68B44A134019007B6A72
:102A4C001A68FB6B0B4393607B6A1B68DB6A0F2273
:102A5C00934318007B6A596A7B6A1A6803000B431C
:102A6C00D3627B6A1B68AA4A934231D1A94B5B6D36
:102A7C0003221340032B1DD023D8022B0CD020D8BB
:102A8C00002B02D0012B0ED01BE01B2320229B1805
:102A9C00DB1900221A7071E01B2320229B18DB1912
:102AAC0002221A706AE01B2320229B18DB190422D5
:102ABC001A7063E01B2320229B18DB1908221A7062
:102ACC005CE01B2320229B18DB1910221A7055E0A6
:102ADC007B6A1B68904A934206D11B2320229B18C9
:102AEC00DB1900221A7049E07B6A1B68864A934204
:102AFC003ED1884B5A6DC0231B011340C0221201DA
:102B0C00934227D0C022120193422AD8802212016C
:102B1C00934211D080221201934222D8002B04D070
:102B2C008022D20093420ED01BE01B2320229B1844
:102B3C00DB1900221A7021E01B2320229B18DB19C1
:102B4C0002221A701AE01B2320229B18DB19042284
:102B5C001A7013E01B2320229B18DB1908221A7011
:102B6C000CE01B2320229B18DB1910221A7005E0A5
:102B7C001B2320229B18DB1910221A707B6A1B68FE
:102B8C00614A934200D092E01B2320229B18DB1950
:102B9C001B78082B15D018DC042B0DD015DC002B62
:102BAC0002D0022B05D010E0FFF7C0F903007B63C5
:102BBC0014E05A4B7B6311E0FFF72CF903007B63A5
:102BCC000CE080231B027B6308E000237B631A2349
:102BDC0020229B18DB1901221A70C0467B6B002B3C
:102BEC0000D147E17B6A5A6A4D4B5200D35A190007
:102BFC00786BFDF781FA0300BB627B6A5A6813009D
:102C0C005B009B18BA6A9A4205D37B6A5B681B030C
:102C1C00BA6A9A4206D91A2320229B18DB19012280
:102C2C001A7027E17B6BBB610023FB617B6A5A6ADC
:102C3C003B4B5200D35A3B6100237B613A697B6961
:102C4C00B869F969FDF7CEFB02000B00110E1D02ED
:102C5C000D4314027B6A5B685B08BB600023FB605E
:102C6C00B868F968001969417B6A5B683B600023AE
:102C7C007B603A687B68FDF7B5FB02000B00130024
:102C8C003B633A6BC0239B009A4209D33A6B802377
:102C9C005B039A4204D27B6A1B683A6BDA60E9E008
:102CAC001A2320229B18DB1901221A70E2E07B6A9E
:102CBC00DA6980231B029A4200D083E01B23202276
:102CCC009B18DB191B78082B15D02BDC042B0DD093
:102CDC0028DC002B02D0022B05D023E0FFF726F9CD
:102CEC0003007B6327E00D4B7B6324E0FFF792F836
:102CFC0003007B631FE080231B027B631BE0C04649
:102D0C00F369FFCFFFCFFFFF00800040FFF4FF11FE
:102D1C000038014000100240004400400024F40040
:102D2C00CC36000800237B631A2320229B18DB1966
:102D3C0001221A70C0467B6B002B00D19AE07B6A93
:102D4C005A6A584B5200D35A1900786BFDF7D4F9D4
:102D5C0003005A007B6A5B685B08D2187B6A5B686D
:102D6C0019001000FDF7C8F903003B633B6B0F2BF8
:102D7C0021D93A6B80235B029A421CD23B6B9AB2EC
:102D8C000E2020240319DB190F218A431A803B6B78
:102D9C005B089BB20722134099B20319DB19021985
:102DAC00D21912880A431A807B6A1B680219D2193D
:102DBC001288DA605EE01A2320229B18DB190122AC
:102DCC001A7057E01B2320229B18DB191B78082B49
:102DDC0015D018DC042B0DD015DC002B02D0022BE7
:102DEC0005D010E0FFF7A2F803007B6314E02E4B34
:102DFC007B6311E0FFF70EF803007B630CE080238C
:102E0C001B027B6308E000237B631A2320229B18A0
:102E1C00DB1901221A70C0467B6B002B2AD07B6A0F
:102E2C005A6A204B5200D35A1900786BFDF764F99B
:102E3C0003001A007B6A5B685B08D2187B6A5B68CC
:102E4C0019001000FDF758F903003B633B6B0F2B87
:102E5C000AD93A6B80235B029A4205D23B6B9AB239
:102E6C007B6A1B68DA6005E01A2320229B18DB19A9
:102E7C0001221A707B6A6A22012199527B6A6822AC
:102E8C00012199527B6A00225A677B6A00229A6759
:102E9C001A2320229B18DB191B781800BD4610B092
:102EAC00B0BDC046CC3600080024F40080B582B01A
:102EBC0000AF78607B689B6A082213400BD07B685C
:102ECC001B685B684A4A134019007B689A6B7B68E5
:102EDC001B680A435A607B689B6A012213400BD023
:102EEC007B681B685B68434A134019007B68DA6A8D
:102EFC007B681B680A435A607B689B6A02221340FA
:102F0C000BD07B681B685B683B4A134019007B68DD
:102F1C001A6B7B681B680A435A607B689B6A0422A5
:102F2C0013400BD07B681B685B68344A1340190054
:102F3C007B685A6B7B681B680A435A607B689B6A88
:102F4C00102213400BD07B681B689B682C4A1340E3
:102F5C0019007B68DA6B7B681B680A439A607B6894
:102F6C009B6A202213400BD07B681B689B68254A08
:102F7C00134019007B681A6C7B681B680A439A60C3
:102F8C007B689B6A402213401DD07B681B685B6882
:102F9C001D4A134019007B685A6C7B681B680A43F6
:102FAC005A607B685A6C80235B039A420BD17B6816
:102FBC001B685B68154A134019007B689A6C7B6828
:102FCC001B680A435A607B689B6A802213400BD0B3
:102FDC007B681B685B680E4A134019007B68DA6CCF
:102FEC007B681B680A435A60C046BD4602B080BD70
:102FFC00FF7FFFFFFFFFFDFFFFFFFEFFFFFFFBFF5C
:10300C00FFEFFFFFFFDFFFFFFFFFEFFFFFFF9FFF64
:10301C00FFFFF7FF80B592B002AF78607B6890221B
:10302C0000219950FDF7E4FD0300FB637B681B68EE
:10303C001B6808221340082B2DD1FB6B80229103B7
:10304C007868474A0092002200F08EF8031E22D0C6
:10305C00EFF310837B627B6ABB630123BB62BB6AA9
:10306C0083F31088C0467B681B681A687B681B68F2
:10307C0080218A431A60BB6BFB62FB6A83F3108866
:10308C00C0467B688822202199507B6884220021CD
:10309C009954032360E07B681B681B68042213406F
:1030AC00042B46D1FB6B8022D10378682C4A00920A
:1030BC00002200F059F8031E3BD0EFF31083FB60A5
:1030CC00FB687B6301233B613B6983F31088C0463B
:1030DC007B681B681A687B681B6822490A401A6067
:1030EC007B6B7B617B6983F31088C046EFF31083A5
:1030FC00BB61BB693B630123FB61FB6983F31088F4
:10310C00C0467B681B689A687B681B6801218A43F0
:10311C009A603B6B3B623B6A83F31088C0467B68CA
:10312C008C22202199507B688422002199540323FE
:10313C0012E07B688822202199507B688C22202108
:10314C0099507B680022DA667B6800221A677B68DC
:10315C0084220021995400231800BD4610B080BD74
:10316C00FFFFFF01DFFEFFFF80B584B000AFF8600A
:10317C00B9603B60FB1D1A7051E0BB6901334ED046
:10318C00FDF736FD02003B68D31ABA699A4202D3A6
:10319C00BB69002B01D1032351E0FB681B681B6842
:1031AC00042213403BD0BB68802B38D0BB68402B2B
:1031BC0035D0FB681B68DB6908221340082B11D142
:1031CC00FB681B6808221A62FB68180000F03CF8C8
:1031DC00FB68902208219950FB68842200219954A5
:1031EC0001232CE0FB681B68DA6980231B011A4061
:1031FC0080231B019A4212D1FB681B6880221201AA
:10320C001A62FB68180000F01FF8FB68902220215E
:10321C009950FB6884220021995403230FE0FB682A
:10322C001B68DB69BA681340BA68D31A5A42534117
:10323C00DBB21A00FB1D1B789A429ED000231800AB
:10324C00BD4604B080BD000080B58EB000AF786084
:10325C00EFF310837B617B697B630123BB61BB69EB
:10326C0083F31088C0467B681B681A687B681B68F0
:10327C0026490A401A607B6BFB61FB6983F310885B
:10328C00C046EFF310833B623B6A3B6301237B62D6
:10329C007B6A83F31088C0467B681B689A687B68DE
:1032AC001B681B490A409A603B6BBB62BB6A83F389
:1032BC001088C0467B68DB6E012B18D1EFF31083AE
:1032CC00BB60BB68FB620123FB60FB6883F3108867
:1032DC00C0467B681B681A687B681B6810218A4390
:1032EC001A60FB6A3B613B6983F31088C0467B68BC
:1032FC008C22202199507B680022DA667B680022A0
:10330C005A67C046BD460EB080BDC046DFFEFFFF0B
:10331C00FEFFFFEF80B584B000AF78607B689B6ADE
:10332C00FB60FB681800FFF735FBC046BD4604B0D8
:10333C0080BD80B586B000AF7860EFF31083BB60C2
:10334C00BB687B610123FB60FB6883F31088C0467C
:10335C007B681B681A687B681B6840218A431A606B
:10336C007B693B613B6983F31088C0467B6888228C
:10337C00202199507B6800229A677B681800FFF720
:10338C0001FBC046BD4606B080BD80B582B000AF23
:10339C007860C046BD4602B080BD80B582B000AF3B
:1033AC007860C046BD4602B080BD80B582B000AF2B
:1033BC007860C046BD4602B080BD000080B584B0C8
:1033CC0000AF78607B6884229B5C012B01D10223C7
:1033DC0027E07B688422012199547B688822242170
:1033EC0099507B681B681B68FB607B681B681A68BC
:1033FC007B681B6801218A431A60FB680B4A1340E7
:10340C00FB607B6800225A667B681B68FA681A604E
:10341C007B688822202199507B6884220021995452
:10342C0000231800BD4604B080BDC046FFFFFFDF7F
:10343C0080B584B000AF786039607B6884229B5C77
:10344C00012B01D102232EE07B68842201219954A7
:10345C007B688822242199507B681B681B68FB6061
:10346C007B681B681A687B681B6801218A431A6099
:10347C007B681B689B68DB00D9087B681B683A6813
:10348C000A439A607B68180000F054F87B681B684C
:10349C00FA681A607B688822202199507B68842204
:1034AC000021995400231800BD4604B080BD0000D3
:1034BC0080B584B000AF786039607B6884229B5CF7
:1034CC00012B01D102232FE07B6884220121995426
:1034DC007B688822242199507B681B681B68FB60E1
:1034EC007B681B681A687B681B6801218A431A6019
:1034FC007B681B689B680E4A134019007B681B682D
:10350C003A680A439A607B68180000F013F87B68ED
:10351C001B68FA681A607B688822202199507B68A6
:10352C0084220021995400231800BD4604B080BDAC
:10353C00FFFFFFF1F0B585B000AF78607B685B6E84
:10354C00002B08D17B686A22012199527B68682282
:10355C000121995243E00F26BB1908221A700E2044
:10356C003B1808221A707B681B689B685B0EDAB2EA
:10357C000D243B1907210A401A707B681B689B6855
:10358C005B0FDAB20C257B1907210A401A703B1825
:10359C001B787A19127814498A5C5A4310007B19EB
:1035AC001B78124AD35C1900FCF730FE030099B269
:1035BC007B686A229952BB191B783A1912780A490E
:1035CC008A5C5A4310003B191B78084AD35C1900DB
:1035DC00FCF71CFE030099B27B6868229952C04626
:1035EC00BD4605B0F0BDC046E4360008EC36000818
:1035FC0003008218934200D1704719700133F9E728
:10360C0070B500260C4C0D4D641BA410A64209D1BC
:10361C00002600F019F80A4C0A4D641BA410A642AF
:10362C0005D170BDB300EB5898470136EEE7B300F7
:10363C00EB5898470136F2E7FC360008FC360008D8
:10364C0000370008FC360008F8B5C046F8BC08BCCA
:10365C009E467047F8B5C046F8BC08BC9E467047FD
:10366C00000000000000000000000000000000004E
:10367C00000000000000000000000000000000003E
:10368C000100000002000000030000000400000024
:10369C000600000007000000080000000900000000
:1036AC00000000000000000000000000000000000E
:1036BC0001000000020000000300000004000000F4
:1036CC00010002000400060008000A000C001000B3
:1036DC0020004000800000010101010307010000EF
:0836EC000804020408010101B9
:0836F4003CCDFF7F0100000046
:0436FC00E5000008DD
:04370000BD00000800
:0C3704000024F40004000000010000009C
:0400000508000AB134
:00000001FF
