:020000040800F2
:10000000580E002099410008E93F0008EB3F000826
:1000100000000000000000000000000000000000E0
:10002000000000000000000000000000ED3F00089C
:100030000000000000000000EF3F0008F13F000852
:100040008B360008F73C0008473D00085B3D000880
:100050005B41000867410008AD410008AF4100085E
:1000600000000000F93F000803400008B14100080B
:1000700013400008B3410008B5410008B74100082B
:10008000B9410008BB410008BD410008BF4100085C
:1000900000000000C1410008C3410008C54100083C
:1000A000C7410008C9410008CB4100081D400008B5
:1000B000CD410008CF410008000000000000000012
:1000C00038B5040014D0250080356868002803D1B5
:1000D0002870200000F0D6FE2420686020680168A7
:1000E000012291430160200000F0DEFA012801D1D5
:1000F000012032BDA06A002802D0200000F0D2FB0F
:1001000020684168084A0A404260206881682A22C3
:1001100091438160FFE72068016801220A43026081
:10012000200000F029FC32BDFFB7FFFF70B50600CC
:10013000350080356868202847D100290BD0100091
:1001400009D0B06880235B01984206D1306900284D
:1001500003D1C80701D5012070BD2878012834D00B
:100160000120287031653000543002804280002424
:10017000EC6021216960416A002918D0384BCB62BC
:100180003849436A19633849436A5963416A8C6341
:10019000130032682832316D406A00F051FF0028A8
:1001A00005D01020E8602C7020206860D3E7402044
:1001B000316808622C70EFF31080012181F3108800
:1001C00031688A68802300F0DEFC022070BD70B5C3
:1001D00004000D0016008820205820283CD1002D56
:1001E00003D0300080B2002801D1012035E0A068A2
:1001F00080214901884207D12069002804D12800C4
:10020000C00701D5012028E08020205C012801D111
:10021000022022E00120802160540020E066206856
:100220000E49884211D02068406800020DD5EFF3D6
:100230001080012181F31088216809688022D2048E
:100240000A4321680A6080F31088320092B22900C4
:10025000200000F04BFC00E0022070BD0080004058
:10026000350C0008650C0008390D0008F8B50700CA
:10027000EFF31080012181F3108839680A683F4B41
:1002800013400B6080F31088EFF31080012181F39D
:10029000108839688A683A4B13408B6080F3108865
:1002A0003C006434A06801280BD1EFF310800121D9
:1002B00081F3108839680A6810239A430A6080F332
:1002C00010881025002638688068000619D5EFF3DD
:1002D0001080012181F3108839688A6880239A434D
:1002E0008A6080F31088606900280AD0866360699C
:1002F00000F0EDFE002804D0606900F0E1FF202846
:100300001DD03868806840061CD5EFF310800121AD
:1003100081F3108839688A6840239A438A6080F3A1
:100320001088A06900280DD08663A06900F0CFFE78
:10033000002807D0A06900F0C3FF202802D1A562E1
:100340000320F2BD380056300021018001810F20CA
:1003500039680862786E6906884203D13868816915
:100360000D4385613868816908220A438261202033
:1003700020626062A660A6620020F2BD1FFEFFFF41
:10038000FEFF7FEFFEB504002268D06911460968C0
:100390009368009325005C3520230B4001932023B4
:1003A000034002930026B94B03400FD1029B002B60
:1003B00012D0019B002B03D1009BDB0000D48CE00A
:1003C0006969002901D020008847F7BD009BB04F24
:1003D0001F4003D1AF4B0B4000D17EE0C30706D5D1
:1003E000CB0504D5012313622A6B13432B6304222C
:1003F000830708D5009BDB0705D5022327683B62EE
:100400002B6B13432B63104208D0009BDB0705D5F1
:1004100023681A622A6B022313432B6302070CD54D
:10042000019A002A03D1009A994B134005D0082263
:1004300023681A622B6B1A432A6380221201104030
:1004400007D0480105D520680262286B20210143AE
:100450002963286B002836D0029800280AD001981A
:10046000002802D10098C00004D56969002901D094
:1004700020008847286B402721688968394002D1CD
:100480002821014024D0200000F0A3FB20688068D0
:10049000074019D0EFF31080012181F31088216803
:1004A0008A6840239A438A6080F31088286A00286B
:1004B0000AD079498163286A00F045FE002802D0FD
:1004C000286A816B8847F7BD200001F0E4FBF7BD87
:1004D000200001F0E0FB2E63F7BD2B69012B00D05B
:1004E00090E01023184200D0194200D18AE0136234
:1004F0001020C04321688968490649D5296A0A68DD
:10050000526892B2002AE7D05C23E35A9A42E3DAB7
:100510006A8009680968890634D4EFF310810122E2
:1005200082F31088226813685C4F1F40176081F3C4
:100530001088EFF31081012282F3108822689368FB
:100540000127BB43936081F31088EFF310810122F0
:1005500082F31088226893684027BB43936081F33D
:1005600010882021E9622E61EFF31081012282F3CD
:100570001088226813681840106081F31088286A78
:1005800000F0A5FD5C20205A6988411A89B235E047
:100590005C21615A6A88891A6A4611806988002933
:1005A00072D06946098800296ED0EFF310810122CC
:1005B00082F3108822681368394F1F40176081F357
:1005C0001088EFF31081012282F31088226893686B
:1005D000344F1F40976081F310882021E9622E611B
:1005E0006E61EFF31081012282F310882268136894
:1005F0001840106081F3108868460188200001F0DF
:1006000065FBF7BD80235B03184207D0009F7F0284
:1006100004D51362200001F05CFBF7BDDA008023F3
:1006200018420AD00B4002D1009B134005D0A969A3
:10063000002929D020008847F7BD4023184214D054
:100640000B4012D0EFF31080012181F31088216854
:100650000A6840239A430A6080F310882020A86229
:10066000AE61200001F036FBF7BD024005D04A0024
:1006700003D5200001F02FFBF7BDC00104D50029F0
:1006800002D5200001F028FBF7BD00000F08000094
:100690000100001020010004890D0008FFFEFFFF8B
:1006A000DFFEFFFFFEFFFFEFF8B5050000242A681C
:1006B000106872490140A8680843296901436869C4
:1006C0000843E9690143116050686D490140E868D9
:1006D00008435060A8696B498A4202D00100286A29
:1006E00008439168684B0B4018439060D06A0F2113
:1006F0008843696A0143D16264A69C48802109024B
:100700009B4B9C4FBA4227D11B689B079B0F62D023
:10071000022B62D063D3032B63D01023594FBA420C
:100720001ED1002B06D0022B08D0042B5BD0082B47
:100730005CD098E001F01DFE002821D0696A4900D4
:10074000715A01F04FFE6A6851008918884202D33D
:10075000110381424CD286E09F4FBA4228D1002338
:100760009E4FEA698A4257D1002B06D0022B08D04F
:10077000042B4CD0082B4DD075E001F0FAFD002879
:1007800072D069680091696A4900715A01F02AFEC5
:100790004000009949084018009901F023FE01002B
:1007A0001039B9425FD207400007400F384352E08A
:1007B000344FBA42B1D11F68C0231B013B400AD05D
:1007C0004F09BB420BD00F09BB4206D0C0273F01E7
:1007D000BB4206D0A1E70023A0E702239EE7042343
:1007E0009CE708239AE701F083FDA5E70800A5E749
:1007F000070E06025008002180197941002301F0FC
:100800000CFEAF494118AF4A91422CD223E001F0CF
:100810006FFDB4E70800B4E7002B06D0022B08D028
:10082000042B1BD0082B1CD01DE001F0A2FD0028DA
:100830001AD069680091696A4900715A01F0D2FDC5
:10084000009949084018009901F0CCFD01001039C9
:10085000B94208D280B22968C86005E001F048FDBD
:10086000E5E70800E5E70124280068300121418020
:10087000018000218160C1602000F2BDF369FFCFDB
:10088000FFCFFFFF00800040FFF4FF1101000200D6
:100890000400060008000A000C00100020004000C0
:1008A000800000012821415CC90706D501684A681B
:1008B000854B1340C26A1A434A602821415C89076C
:1008C00006D501684A68814B1340026B1A434A609F
:1008D0002821415C490706D501684A687C4B1340D2
:1008E000426B1A434A602821415C090706D501681A
:1008F0004A68784B1340826B1A434A602821415C56
:10090000C90606D501688A68734B1340C26B1A4347
:100910008A602821415C890606D501688A686F4B88
:100920001340026C1A438A602821415C490611D5A4
:1009300001684A686A4B1340426C1A434A60426C31
:1009400080235B039A4205D14A68664B1340826C50
:100950001A434A602821415C090606D501684A68A5
:10096000614B1340C06C1843486070470024F4008A
:100970005410024000380140F8B5040000258030D2
:10098000C56001F089FD0700824E206800680007FD
:1009900009D500963B00002280218903200000F049
:1009A0001FF800280DD12068006840070BD500967D
:1009B0003B0000228021C903200000F011F800282C
:1009C00001D00320F2BD21008031202048608860E2
:1009D000E5660D700020F2BD00440040F0FF00000D
:1009E000FEB5089F80242401002506000191684679
:1009F000027002933068C0690199014001988142F8
:100A000001D1012000E0002069460978884254D1D4
:100A10000020C0438742EDD001F03EFD0299401A0C
:100A2000874201D3002F1FD1EFF31080012181F302
:100A3000108831680A687E4B13400B6080F3108881
:100A4000EFF31080012181F3108831688A68012357
:100A50009A438A6080F31088300080302021416002
:100A6000816005700320FEBD306800684007C1D575
:100A70003068C0692040BDD030680462EFF3108058
:100A8000012181F3108831680A68694B13400B60BB
:100A900080F31088EFF31080012181F31088316812
:100AA0008A6801239A438A6080F31088300080307E
:100AB000202141608160C160D3E70020FEBD0000BD
:100AC00000FDFFFF00FD0F00FFFFFDFFFFFFFEFF2A
:100AD000FFFFFBFFFF7FFFFFFFEFFFFFFFDFFFFFDA
:100AE000FFFFEFFFFFFF9FFFFFFFF7FF70B5050060
:100AF0001300A9655C3003802E0080360024F4606A
:100B00002221B160016A002918D07E4ACA627E495A
:100B1000026A11637D49026A5163016A8C63AA6D9E
:100B200029682431006A00F08BFA002806D01020D2
:100B3000F06034702020B060012070BD34702869EE
:100B400000280CD0EFF31080012181F31088296870
:100B50000A6880235B0013430B6080F31088EFF377
:100B60001080012181F3108829688A6801231343CA
:100B70008B6080F31088EFF31080012181F31088DF
:100B800029688A68402313438B6080F31088002013
:100B900070BD0000FFFFFF0110B5EFF310810122CF
:100BA00082F3108802681368C024A343136081F3A2
:100BB0001088EFF31081012282F310880268936895
:100BC000534C1C40946081F3108820218422815072
:100BD00010BD10B5EFF31081012282F31088026876
:100BE00013684C4C1C40146081F31088EFF31081A3
:100BF000012282F3108802689368474C1C4094607D
:100C000081F31088C16E01290BD1EFF3108101220D
:100C100082F31088026813681024A343136081F3E1
:100C200010882021882281500021C166016710BDF3
:100C30005FFEFFFF10B50100886A09680968890630
:100C40000DD4002156228152EFF31081012282F34C
:100C50001088026893688024A34393609EE001F0AB
:100C600039F810BD80B5806A01F01CFC01BD70B57B
:100C70000100886A02005C32202309680968194073
:100C800034D15180EFF31081012484F3108804687B
:100C900025684A4E2E40266081F31088EFF31081BC
:100CA000012484F310880468A5680126B543A56073
:100CB00081F31088EFF31081012484F31088046815
:100CC000A5684026B543A56081F31088D3621169F9
:100CD00001290BD1EFF31081012383F310880368FE
:100CE0001C681025AC431C6081F310881169012930
:100CF00004D15C21415A00F0E9FF70BD00F0B7FF5C
:100D000070BD00006F0C00081D0D0008390D0008B3
:100D1000FFFF7FFFDFFEFFFFFEFFFFEF80B5806A72
:100D2000C16E012905D15C21415A490800F0CEFF6E
:100D300001BD01F0B8FB01BDF8B5876A3C00843401
:100D40002068616800913D00563500263968896841
:100D5000090606D5212804D1002028803800FFF795
:100D60001BFF38688068400606D50098222803D10A
:100D70002E813800FFF72DFFA06810210143A160EC
:100D8000380000F088FFF1BD80B5806A010056315F
:100D900000220A810A8000F07EFF01BD81F31088E5
:100DA000EFF31081012282F310880068026840236B
:100DB0001343036081F3108810BD0000FFFEFFFFA6
:100DC00081B06C48012142680A4342604268114088
:100DD000009100998021490502680A430260006879
:100DE00001400091009801B0704770B586B00400D2
:100DF0001422002101A801F057FB20685E498842B7
:100E00003ED15E4880214903C2680A43C260C2687D
:100E1000114000910099012102680A4302600068B4
:100E20000140009100984420019003200290002589
:100E3000039501A9A020C00501F040FB504E514888
:100E4000306005207060B560F560802030618030D2
:100E500070618000B0612020F061000230623000DB
:100E600000F09CF8002801D000F031FF2665B46244
:100E7000002200210C2001F07CFC0C2001F07EFC03
:100E800006B070BDF1B586B01422002101A801F0B2
:100E90000BFB069800683C49884258D137498020AE
:100EA000C001CA680243CA60CA6810400090009836
:100EB00002200A6802430A60096801400091009913
:100EC000C021019102900024039403200490059412
:100ED00001A92E4801F0F2FA2D4E2E4F3760322034
:100EE0007060B460F460802535617461B461202065
:100EF000F061C0013062300000F050F8002801D0ED
:100F000000F0E5FE0698C6670698B062224E3800EB
:100F100014303060332070601020B060F4603561B0
:100F20007461B461F4613462300000F037F8002875
:100F300001D000F0CCFE069886670698B0620022C9
:100F400000211B2001F015FC1B2001F017FC07B04D
:100F5000F0BD81B000688021C905884208D1012018
:100F600004490A6802430A60096808400090009832
:100F700001B070473C100240002401403410024090
:100F8000BC0400200800024000380140000400506A
:100F9000180500201C0002407405002038B504002C
:100FA00001D1012032BD206886494018142101F08A
:100FB00019FA80002064022025216054206800680E
:100FC000814901402068016020680168A2680A43E5
:100FD000E168114322690A4361691143A2690A4326
:100FE000E1691143226A0A430260200000F089F996
:100FF0000025A0688021C901884200D16560207960
:101000008006800E616C0860E06CA16C48606068CE
:1010100000280AD0052808D2200000F087F9206DAA
:101020000560A06D616D486002E025656565A56598
:10103000E56301202521605424202554002032BD81
:10104000F2B50400002000262421615C012901D1B1
:101050000220F2BD2100243101250D702527E75D16
:10106000012F2ED102212527E155E0632068016878
:10107000A94301600099200000F024F92068216B49
:101080000029016801D00E2205E00422914301608D
:10109000206801680A220A430260616C28020A681B
:1010A000D20302D50A6802430A60216D002903D0E9
:1010B00009680843216D0860206801680D430560D8
:1010C00003E08022E263087001263000F2BDF0B533
:1010D000002809D00100243100222523C35C022B03
:1010E00004D00423C3630A700120F0BD03681C68A8
:1010F0000E25AC431C60446C704B25681D40256078
:10110000046825680126B5432560304C2568AC4647
:101110004025475D1C253D400127AF4065462F43D4
:101120002760C46C856C6C60046D002C06D024684C
:101130002340046D2360836D446D63602523C65492
:101140000A700020F0BDF8B50021002401262522F8
:10115000825C022A03D00421C16301242EE00268CC
:1011600013680E25AB43136002681368B343136022
:10117000436C524A1D6815401D60144B1D68AC46F7
:101180004025475D1C253D400127AF4065462F4364
:101190001F60C36C856C6B60036D002B06D01B68F1
:1011A0001A40036D1A60826D436D5A602522865481
:1011B00024228154816B002900D088472000F2BD91
:1011C00000000000F8FFFDBF0F80FFFF0400024099
:1011D000FEB55E490A6802920268136801934023D3
:1011E000C35C1C241C406B461C7020230424029DFD
:1011F0006E4636780427B7402F4015D0019D254014
:1012000012D015682B4002D11368A34313604A68BB
:101210004023C35C1C251D40AC4014434C60016B53
:10122000002949D08847F7BD01240025029EB44615
:1012300002276E463678B740664637401BD00226F6
:10124000019F374017D017683B4005D113680A2724
:10125000BB431360252284544A684023C35C1C248A
:101260001C40A64016434E6024214554C16A002903
:1012700022D08847F7BD08236E4636780827B74046
:101280006646374018D0019E334015D013680E26AD
:10129000B34313604A684023C35C1C261E400123ED
:1012A000B34013434B60C463252144542421455467
:1012B000416B002900D08847F7BD0000FFFEFFFF0B
:1012C000C06B7047F0B5C46C856C6C60046D002C0D
:1012D00002D0846D456D6C601D4C26684025475DCD
:1012E0001C253D400127AF403743276004686360F9
:1012F0008068102802D1A260E160F0BDA160E260C8
:10130000F0BD10B50400206C03218843114940183A
:10131000606420780838142101F064F80E49A16453
:101320000121C006C00E8140E16410BD017989062B
:10133000890E8A00094BD2180265094A42650122CA
:10134000491E8907890F8A40826570470000024064
:10135000040002400008024080080240FC080240ED
:101360004009024070B562B601F02EFA00F04BF869
:1013700000F01AF900F0FDF800F08DF800F0CDF85B
:1013800000F059F9C64C00266673607B00F0F2F954
:1013900020001030206018202071C24D280001F07C
:1013A0003BFA002801D000F092FC022221003C31DF
:1013B000280001F009FC002801D000F088FCBA4D9B
:1013C00001222900B948FEF702FF002801D000F0F1
:1013D0007EFCFF20A0732672082060720320A0729A
:1013E000281D01F08CFF00F0B1F96065606D216D82
:1013F0004018A06500F00EF900F05AF920004030C6
:1014000002F06FF9F8E738B59CB0382104A802F073
:1014100073F9684600210022002300241EC0282101
:1014200012A802F069F98020800002F06DF9022410
:101430000494E001079000250895402009900B9442
:101440000C940D9508200E9080030F9000021090D0
:101450000001119004A800F0AFFC002801D000F0BA
:1014600036FC0720009001940295039502216846FE
:1014700000F08EFE002801D000F029FCB548129043
:101480001395199512A802F065F9002801D000F013
:101490001EFC1DB030BD3EB5684600210022002371
:1014A0000EC0804CAC482060E0204003606000200B
:1014B000A060E06080210906216104216161208330
:1014C0000125A576E5612022A0546062A0622C224D
:1014D000A5548902216365633C22A054E064200086
:1014E00001F061FA002801D000F0F1FB9B48009068
:1014F00001956946200001F0A3FC002801D000F00E
:10150000E6FB9748009001956946200001F098FCA1
:10151000002801D000F0DBFB37BD10B5634C9148CB
:101520002060914860600020A060E06020610C2194
:101530006161A061E06120626062A0622000FEF74C
:10154000BFFD002801D000F0C2FB0021200002F006
:10155000FAF9002801D000F0BAFB0021200002F0C7
:101560000BFA002801D000F0B2FB200002F0CEF907
:101570008CE380B501207D490A6802430A6009684E
:1015800008400090009800220021092001F0F1F8A5
:10159000092001F0F3F8002200210A2001F0E9F807
:1015A0000A2001F0EBF801BD38B586B0142101A87E
:1015B00002F0A2F801246E4801682143016001682D
:1015C000214000910099022102680A4302600068EC
:1015D000014000910098A025ED050022C921490194
:1015E000280001F097F800228021280001F092F8ED
:1015F00000222102280001F08DF8CD204001019049
:10160000029400200390049001A9280000F056FFE6
:1016100007B030BD80B52248CC4901640021416447
:10162000CB49C1648164403002F030F8002801D019
:1016300000F04DFB01BD30B587B003A800210022AA
:10164000002300241EC068460EC0174C8020C00531
:1016500060603F20A0600025E5600020C04320615D
:101660006561E561201D01F03BFE002801D000F01E
:101670002EFB80204001039003A9201D01F00EFFE6
:10168000002801D000F023FB009502956946201D3B
:1016900002F0C8F9002801D000F019FB07B030BDF6
:1016A0000000002058040020D0050020C8030020BE
:1016B00010B5CA4C00F04AF86065A07BFF2801D045
:1016C00000F0F3F9207B00283FD1606DA16D8842C6
:1016D0003BD3606D216D4018A065607BA18FC0B2C7
:1016E000400020180182607B072803DA607B401CE1
:1016F000607320E0607BE18FC0B24000201841821F
:10170000607B40002018217A8182606DA084606D2A
:10171000000CE084207A042804D1A17A2000103043
:1017200000F0DCF8E07B002803D02100002002F06C
:101730003FFA00206073607A082803D1607B00F0D4
:1017400019F802E0607A00F015F810BDA4480068AE
:101750007047000001400000002401400400000820
:101760004000001800380140C0C62D00381002406B
:101770003410024038B505002800C0B200280CD053
:10178000022832D01DD3042857D042D306287CD05B
:1017900067D3072800D18CE09FE0A024E405002255
:1017A00080214901200000F0B5FF002280210901BD
:1017B000200000F0AFFF00222021200000F0AAFF4F
:1017C0008BE0A024E405012280214901200000F0E3
:1017D000A1FF002280210901200000F09BFF0022D0
:1017E0002021200000F096FF77E0A024E4050022ED
:1017F00080214901200000F08DFF01228021090194
:10180000200000F087FF00222021200000F082FF4E
:1018100063E0A024E405012280214901200000F0BA
:1018200079FF012280210901200000F073FF0022CE
:101830002021200000F06EFF4FE0A024E4050022EC
:1018400080214901200000F065FF0022802109016C
:10185000200000F05FFF01222021200000F05AFF4D
:101860003BE0A024E405012280214901200000F092
:1018700051FF002280210901200000F04BFF0122CE
:101880002021200000F046FF27E0A024E4050022EC
:1018900080214901200000F03DFF01228021090143
:1018A000200000F037FF01222021200000F032FF4D
:1018B00013E0A024E405012280214901200000F06A
:1018C00029FF012280210901200000F023FF0122CD
:1018D0002021200000F01EFFFFE731BD70B500F0B1
:1018E0004DF8040031D03F4D686900281CD1E888CC
:1018F000A988401A80B20026642801DC03200AE08F
:10190000C92801DA022006E0FF219231884201DA7B
:10191000012000E000203149087200F08AF86420BC
:101920000B49A980EE8000E0401E6861002C05D5BF
:10193000A9882888884208D2A88070BD05DDE8887B
:101940006988814200D20100E98070BD003000400A
:10195000FF0F000030B502000800C0B24000135A6B
:10196000204804891D00ADB2AC4205D01C00A4B2D1
:101970000589641BC4600381C06830BD70B5060072
:101980000C00184D2100C9B23000FFF7E3FFE860FA
:10199000002108002A69002A0AD5EA68012A07DB23
:1019A0002200D2B25200B25A2A800022D243100042
:1019B0002A69012A09DBEA68002A06D52200D2B288
:1019C0005200B25A6A80012210006A882B889A421B
:1019D00000D20800E968296170BD00000000002005
:1019E000240000405C00002030B585B004000D00EC
:1019F0001421684601F080FE2900200000F00FFE4F
:101A000000950020019002900DE030B585B00400F3
:101A10000D001421684601F06FFE00950120019031
:101A20000020029003906946200000F047FD05B0B9
:101A300030BD38B580256D00A024E405002805D010
:101A4000022816D007D303281CD031BD80212000E6
:101A5000FFF7CAFF08E080212000FFF7D6FF012230
:101A60008021200000F056FE29002000FFF7BCFF77
:101A700031BD80212000FFF7B7FF29002000FFF7CC
:101A8000C4FF0CE080212000FFF7BFFF29002000E9
:101A9000FFF7BBFF01228021200000F03BFE012266
:101AA0002900200000F036FE31BD10B5F0207D4C3D
:101AB000A17B0140302904D1A07B0007000F607298
:101AC000AFE0A17BD0220A40D02A16D1A07BD1283A
:101AD00002D10020E073A4E0A07BD22802D1012033
:101AE000E0739EE0A07BD52800D09AE0E07B002840
:101AF00000D196E002F06AF893E0A17B0140102942
:101B00001AD1A07B102802D10020207210E0A07B07
:101B1000112802D1012020720AE0A07B122802D1F4
:101B20000220207204E0A07B132801D10320207240
:101B3000207AFFF77EFF74E0A17B014020293ED18F
:101B4000A07B202804D1042020720020A07268E02D
:101B5000A07B212804D1042020720120A07260E023
:101B6000A07B222804D1042020720220A07258E019
:101B7000A07B232804D1042020720320A07250E00F
:101B8000A07B242803D104202072A07249E0A07B0E
:101B9000252804D1042020720520A07241E0A07BFA
:101BA000262804D1042020720620A07239E0A07BF0
:101BB000272836D1042020720720A07231E0A17BB3
:101BC000084040280BD1A07B412802D1012020737E
:101BD00027E0A07B442824D10020207321E0A07BB3
:101BE00050210140502906D1A07B102108400A2134
:101BF0004843206515E0A07B60210140602910D199
:101C0000A07B602802D102F071F80AE0A07B612875
:101C100002D101F06AFF04E0A07B622801D100F04C
:101C200003F8FF20A07310BD80B572B662B600F055
:101C300073F800F0DBFD1C48002181604160016009
:101C40001A4801680322914301220A43026018489E
:101C500001680022D243174B1A60174B1A6062B614
:101C600081F3098881F3088840688047FEE71349BB
:101C700009780C4A9173704710B5114C200000F0A0
:101C8000F2FF02220F49200000F09EFF002801D041
:101C900000F01DF810BD80B50B48FEF7E7FAFFF71E
:101CA0003CFC01BD0000002010E000E0000001400D
:101CB0000000FF1F80E100E080E200E0D00500208E
:101CC000580400203C000020C8030020704772B672
:101CD000FEE7704770477047704730B5016841189C
:101CE000446862088A188368E40704D54C461B19C7
:101CF00001E0641C09D1914203D00C7864B2491C04
:101D000001E00C3030BD0D78491C1D705B1C002CAF
:101D1000EFD4641EF7D5EEE7F8B500F0BDFB060082
:101D2000802464001F4D28682043286028684005EF
:101D300006D400F0B1FB801B0328F7D30320F2BDCB
:101D4000A001686000F0A8FB0026AE600700A8684C
:101D50003821014006D000F09FFBC01B1249884289
:101D6000F5D3EBE72C602C6000F096FB04002868AC
:101D7000800105D500F090FB001B0328F7D3DDE7B9
:101D8000A80CE860AE610020C043286207480849FB
:101D900008600848006801F0AFFF002800D001206B
:101DA000F2BD000000100240891300000024F4007E
:101DB0008802002084020020FEB507001BD0A84C3A
:101DC0003878C00719D5A16838200840E168802517
:101DD000AD02102808D18807800F032806D0796843
:101DE0006808814234D13BE00828F8D120680540DA
:101DF00003D07868002800D1BEE1387880077BD511
:101E0000A06838210140E268A848A94D10294ED1A8
:101E10009207920F022A4CD0F968002900D196E06F
:101E2000216808403969014321602068A10D014300
:101E3000216000F031FB3E0007002068400500D51E
:101E40007DE000F029FBC01B0328F6D30320FEBD74
:101E5000A022D202914207D1216882000A43226067
:101E600021680843206007E0206892490140216012
:101E70002068914901402160786800280BD000F06B
:101E80000BFB060020682840B7D100F005FB801B43
:101E90006528F7D3DAE700F0FFFA0600206828404B
:101EA000ABD000F0F9FA801B6528F7D3CEE7002904
:101EB000B2D12268520502D5FA68002A3ED0626883
:101EC00015407A6912022A43626000290ED1216806
:101ED0000840396901432160A84801212268920421
:101EE000520F914000F07EFAA5490860A5480068AD
:101EF00001F002FF002821D10225387800070AD519
:101F0000A06838210140182931D1206E284002D024
:101F1000B869002812D03878400700D4A9E0002022
:101F20000190A06838210140202942D1E06D054090
:101F300000D19EE0B868002800D09AE01CE16068FB
:101F4000054070690002284360603700D4E72068CC
:101F50008D490140216000F09FFA0500206840058E
:101F6000CAD500F099FA401B0328F7D36EE7B86989
:101F70000028206E0ED001210143216600F08CFA6A
:101F80000600206E2840C6D100F086FA801B032888
:101F9000F7D35BE701218843206600F07DFA060055
:101FA000206E2840B7D000F077FA801B0328F7D3C3
:101FB0004CE7E806E16B014008D1E16B0143E163C6
:101FC000E16B084000900098012001906F4D286857
:101FD000C00512D4A00D0090286800990143296023
:101FE00000F05AFA060028680099014005D100F077
:101FF00053FA801B0328F6D328E7B868012101288B
:1020000005D00528E06D06D104220243E265E06DAB
:102010000143E16505E08843E065E06D0421884304
:10202000E0650226B86800280CD000F035FA0500FB
:10203000E06D304016D100F02FFA401BA8498842CD
:10204000F6D303E700F028FA0500E06D304009D030
:1020500000F022FA401BA2498842F6D3F6E600BF00
:10206000001002400198002803D0E06B9D49014018
:10207000E163F869002858D0A16838220A40102A84
:1020800055D08026B6049849022820683BD10140EB
:10209000216000F001FA0500206830400ED000F009
:1020A000FBF9401B0328F7D3D0E600BFFFC7FFFFB3
:1020B000FF80FFFFFFFFFEFFFFFFFBFFE0688B4994
:1020C0000140386A0843796A0143B86A000208434C
:1020D000F96A0143386B0843796B0143E16020687A
:1020E000710801432160E068F1000143E16000F004
:1020F000D3F905002068304017D100F0CDF9401B1E
:102100000328F7D3A2E60140216000F0C5F90500DD
:102110002068304005D000F0BFF9401B0328F7D3FA
:1021200094E6E0689A490140E1600020FEBD012884
:1021300022D0E0688107890F3A6A91421CD1702150
:1021400001407A6A914217D1FE21C9010140BA6A61
:102150001202914210D1F82189030140FA6A91429A
:102160000AD1E021090501403A6B914204D1400FA8
:102170004007796B8842D8D00120FEBD0024F400CE
:102180008802002084020020FFFEFFFF0070004054
:10219000F8B5070066D000917E4800684007400F00
:1021A000884218D27B4C206807218843009901435C
:1021B000216000F071F9009D060020684007400F83
:1021C000A84207D000F068F9801B45498842F4D343
:1021D0000320F2BD00953968704C022001420CD0FA
:1021E000490704D5A168E022D2010A43A260A16890
:1021F000694A0A40B9681143A1600725ED4339785F
:10220000C90732D57968012918D12068800329D5FA
:10221000A06828400143A16000F03EF93E0007009D
:10222000A068382101407068C00081421CD000F0D5
:1022300033F9C01B2A498842F2D3C9E7022902D1E7
:102240002068800103E0002903D120684005DFD425
:1022500008E0032903D1226E1040D9D102E0E26DDB
:102260001040D5D10120F2BD3700009849490968D6
:102270004907490F884217D2464800680540009830
:1022800028434449086000F007F9009D06004148D2
:1022900000684007400FA84206D000F0FDF8801B00
:1022A0000F498842F3D393E73878400705D5A068F3
:1022B0003B490140F8680843A06000F019F839492B
:1022C000A2681205120F9200895CC906C90EC840A7
:1022D000354908603548006801F00EFDF2BD000088
:1022E00089130000FFFFFFEFFFFFFFFE8C80C1118D
:1022F00030B507212F48294C3823A2681A4006D14F
:1023000023680122DB0A19408A4011001EE04208BE
:10231000A5681D40082D01D1100030BDA5681D40E5
:10232000102D16D1E368E5682D092940491C7F2549
:102330009B079B0F032B00D1100000F053F8E168BE
:10234000090A0D406843E168490F491C00F04AF84A
:1023500030BDA0681840202802D18020000230BD86
:10236000A0680340182B02D1FA20C00130BD002024
:1023700030BD0F4801680C4800680F4A4904490FF6
:102380008900515CC906C90EC840704700000000B2
:10239000FCFFFEEE00200240FFF0FFFF00100240B5
:1023A000FF8FFFFF4C4000088802002084020020BD
:1023B000081002400024F40010410008CA0F00D0A9
:1023C000494203105A400DD004B500D3404200F0FA
:1023D00009F8009AD20701D34942124200D540427F
:1023E00004BD0000094214D088420FD30122030C1F
:1023F00001D100041204002300185B418B4200D37A
:102400005B1A5241F8D319001000704701000020F8
:10241000704708B501F096FC08BD12422DD09942D4
:1024200031D970B500251B4209D00C00002112E003
:102430001100FFF7D7FF0A000021002370BD0942F9
:10244000F6D00024012649186441944200D3A41A0E
:102450007641F8D33100012601E0764109D2001817
:1024600064416D41A41A9D41F7D2A4185D41B6198B
:10247000F5D3300022002B0070BD1B42CFD108B530
:1024800001F062FC08BD01D19042CAD202000B00EB
:10249000002100207047776601484068704700BF00
:1024A0007C0200207047704710B50400080011003E
:1024B0000200200001F022F9200010BDFFB500222B
:1024C0000F2302932CE0052602E0954FB842FAD183
:1024D000AE402643009C2660924C2568DC43254094
:1024E0004E68F60200D51D438E4E35607568254056
:1024F0004F68BF0200D51D4375608B4D6E68264046
:102500004D68AD0300D51E43874D6E602E68344084
:102510004E68F60302D526001C0034432C60521C82
:102520000B681C00D44079D0012595402B40F6D093
:1025300054000327A740FE4301964E68B707BF0F1C
:10254000012F03D0B607B60F022E0ED18768019E69
:102550003E40CF68A740374387604668AE434D682A
:10256000EF06FF0F9740374347600D79AD07AD0F7A
:10257000032D25D0C568019E2E408D68A5403543AA
:10258000C5600D79AD07AD0F022D19D1D508AD008D
:1025900045192E6A039697001C263E406F463E70F2
:1025A000039EB446029F6E463678B7406646BE43E9
:1025B000B4460F696E463678B740664637432F6299
:1025C00007680326019D3D404F683740BC46270001
:1025D0006446BC402C4304604C68350425409ED0C2
:1025E000524C9508AD0064190094009C2468D700F3
:1025F00018253D40029FAF40BC43A027FF05B842CD
:1026000001D1002664E74A4FB84201D101265FE7B5
:10261000484FB84200D058E7022659E7FFBDF0B551
:1026200085B00200404800900491002348E005274F
:1026300003E03B4DAA42FAD10327BC46DF00182530
:102640003D406746AF40BE421AD1039EF543009E0F
:1026500036682E40009F3E60009E76682E40009FA8
:102660007E60304E76682E402E4F7E603E46366845
:1026700035403E463560019D2D68A543019C25608F
:1026800003245D00AC4001941468019D254315604E
:10269000DC08A4001419256A9F001C263E400F2761
:1026A000B740BD432562019DEC4395682540956088
:1026B0005568029EB5435560D5682C40D4605B1CBC
:1026C000049CDC4024D001249C400294049C029D84
:1026D00025400395F3D0154C9D08AD006419019475
:1026E000019C26680F24DD0018272F40BC4026409F
:1026F000A025ED05AA4201D100279EE70C4DAA4274
:1027000001D1012799E70B4DAA4292D1022794E704
:1027100005B0F0BD002A01D0816170478162704729
:10272000000C00500018024080180240601802405F
:10273000000400500008005010B5C20018231340D8
:10274000FF249C40E2438907090E9940030004D40A
:1027500019489B089B00C01806E0184B0007000FA3
:10276000083880088000181803681A401143016077
:1027700010BD80B5FFF7E0FF01BD0000010005D4EA
:102780000121C006C00E81400D480160704710B5A0
:10279000401E80214904884201D3012010BD094C0C
:1027A000606003210020C043FFF7C6FF0020A06047
:1027B0000721216010BD000000E400E01CED00E0F6
:1027C00000E100E010E000E010B5002410480168CE
:1027D000820D0A430260032001F08EFA002801D026
:1027E000012401E0FEF7ECFA200010BD80B5094895
:1027F0000021C943816000228260C160C2604160E3
:1028000042600160026001F0A0FA002002BD0000F9
:102810000020024024100240F1B586B0002400944C
:10282000039406985421405C012801D102209AE0CB
:10283000069E543601253570069800F0C1FC6946A5
:1028400008710698006881681027294000D084E04C
:102850000699543102914968444A0A4002211143C1
:10286000029A5160C168424A0A400592C168414AD1
:102870000A40C26002940820069909688A683E4BA3
:102880001340802212061A438A60069909683B4B5E
:102890008A68D20F0ED0009A521C0092009A9A4277
:1028A000F6D3069854304168022291430F434760A3
:1028B000047045E0B4228A58039B5206520E9A18BF
:1028C0000392029A521C0292401ED5D12A4E886869
:1028D000304028438860069800680490B42140582E
:1028E0007F218843009003980299FFF77BFD010048
:1028F000009801430498B4228150069800688168CA
:102900000E40022131438160FFF7C6FD059E009015
:10291000069800688168294014D0FFF7BDFD009932
:10292000401A0228F4D90698006880682840EFD041
:102930000698543041680F43476081680D438560B5
:10294000012010E0C1680E43C660069E54367068D0
:10295000022188430543756002E070680743776091
:1029600034706846007907B0F0BD0000FFFEFFFF3D
:1029700003800000FC7FFFFFE8FFFF7F00F2020002
:1029800010B504231940436907248C40A3438A40AF
:102990001A43426110BDC068C02109010140481EB0
:1029A0008041C00F7047FEB5050000260020009052
:1029B000002D01D10120FEBD2C0054346068002898
:1029C00005D12800FEF711FA0020A06020702868C9
:1029D0008168C90014D48168724A0A40802149057F
:1029E00011438160704800687049FFF7FBFC401C90
:1029F000400001E00098401E009000980028F9D1A6
:102A0000296888681027C00007D460683843606070
:102A1000A06801220243A2600126886862683A40E9
:102A200000D0B9E0400700D5B6E06068604A0240D7
:102A30000220104360608868C00772D4286B0028A9
:102A400001D03A0200E000222869002802D54000A7
:102A5000400800E078040190A87E6B461870AB68CF
:102A6000287E800318436B7EDB03034368460078AF
:102A7000400318430243E8681043019A02432C20A4
:102A8000285C400010432022AA5C012A0FD16A462C
:102A90001278002A03D102003803104307E062686D
:102AA000202313436360A26801231343A3606A6A6F
:102AB000002A05D0E0235B0013400343A86A1843B3
:102AC000CA683C4B13401843C8606868810F890787
:102AD000E86C08433C21695C012907D1296C01435A
:102AE000686C0843A96C01430120084329680A69FE
:102AF000314B1340184308616868C02109068842B9
:102B00000FD0494288420CD080210906884208D063
:102B10002A490B682A4A1A40F0239B0303401343B7
:102B20000B606A6B00212868FFF72AFFAA6B254912
:102B30002868FFF725FF29690F20C043002904D129
:102B400029688A6A104388620CE07A04914209D1AC
:102B500029688A6AEA69521E5207D20E9040E268DA
:102B600002438A62286841690220C0434907490F2D
:102B70006A6B914207D10021A16061680840012180
:102B8000014361600CE0616808400743676001260B
:102B9000A0683043A06003E06068074367600126D7
:102BA0003000FEBDE8FFFF7F88020020400D0300DB
:102BB000FFFEFFFF0102FEFF02FCFF1F082701408E
:102BC000FFFFC3FF04FFFF07F3B581B00400160049
:102BD00021688A68042702203A4043D15422A25C2B
:102BE000012A3FD0012254256255904DCB681340F5
:102BF0000AD18B68134003D08B682B401843886040
:102C00002068C1680A43C260200000F08EFA01000B
:102C100028D10096029A200054304168824B0B4024
:102C2000B9011943416000218160814B266DF36237
:102C3000804B266D3363804B266D73631C2326689F
:102C4000336001702068416810230B434360009B90
:102C500021684031206DFEF7F3F921688A6815403C
:102C60002F438F60FEBDF8B504005420205C01287E
:102C700001D10220F2BD2700543701253D7020000C
:102C800000F028FA060022D1206D2521415C02299E
:102C900007D1FEF71CFA060003D0786840210143F3
:102CA000796020684168102291434160300012D160
:102CB000200000F085FA060004D178680849014038
:102CC0000D437D602068C16801229143C1600020EE
:102CD00038703000F2BD200000F072FAF2E7000018
:102CE000FFFEFFFFF8B50400206805684768A807E5
:102CF0000FD5B8070DD5A06DC00604D4A06D8021F6
:102D000009010143A165200001F020F8022021689B
:102D100008600426354201D0374203D1280732D556
:102D2000380730D5A06DC00603D4A06DF101014372
:102D3000A1652068FFF72FFE00281ED0A07E002886
:102D40001BD120680068000717D520688168012022
:102D50000E400BD1216849680C22914322685160D2
:102D6000A16D364A0A401043A06506E0A16D2022FD
:102D70000A43A265E16D0843E065200000F0E7FF2B
:102D80000C202168086028060BD58026374208D021
:102D9000A06D71020143A165200000F0D9FF2068F9
:102DA0000660E8050CD580267600374208D0A06D75
:102DB00071020143A165200000F0CBFF206806608E
:102DC0008026B60035420AD0374208D0A06D710285
:102DD0000143A165200000F0BDFF206806601026B9
:102DE000354215D0374213D0206B002803D020681D
:102DF000C06880070AD0A06DB1010143A165E06DF4
:102E000002210143E1652000FEF736FF20680660DD
:102E10007602354006D0374004D0200000F09BFFFA
:102E200020680660F1BD0000FEF1FFFFE8FFFF7FB4
:102E300027320008BD320008C7320008FFFEFFFF3E
:102E4000F1B585B000206A46507001900598542273
:102E5000805C012801D1022021E1059854300290C4
:102E60000125057005980668B068400700D509E19E
:102E70000191059800690390019840680490894980
:102E8000894A8A4880231B06049C022C039C00D19B
:102E9000CEE09C4201D0844207D101980068B46A18
:102EA0004003400B2043B06280E0019800680F248B
:102EB000470302D14000C50E47E0284244D18707AE
:102EC00043D40425284201D002253EE0070701D55E
:102ED00003253AE0C70638D4850601D5052534E038
:102EE000450601D5062530E0050601D507252CE06D
:102EF000C50501D5082528E0850501D5092524E06B
:102F0000450501D50A2520E0050501D50B251CE066
:102F1000C50401D50C2518E0850401D50D2514E064
:102F2000450401D50E2510E0050401D50F250CE060
:102F3000C50301D5102508E0850301D5112504E05E
:102F4000400301D5122500E000250498C006C00EFC
:102F50006F4638700298C768BC46684607780F20ED
:102F6000B840674687436846007885403D430298ED
:102F7000C56001984068059DED6987087F1CBD42CA
:102F800014D3019D2D68C006C00E6F463870B76A15
:102F9000BC46684607780F20B84067468743A80EAE
:102FA00004406846007884403C43B46201988068DD
:102FB000019C2568059C24682D026669AE43284063
:102FC0003B4D05403543656101980468234061D05D
:102FD0001368C8431840374B9C4217D180231B0409
:102FE000184257D114682140084303431360324804
:102FF00000683249FFF7F6F9401C0C214843019064
:103000000198002846D00198401EF8E72C4B9C42BE
:1030100002D180235B0404E02A4B9C423AD18023F6
:10302000DB03184236D1146821400843034327E0EC
:103030009C4201D0844206D101980068B46A4003E2
:10304000400B8443B46201980468234022D0136883
:10305000C8431840174B9C4203D1136819401A4BC0
:103060000CE0174B9C4203D113681940174B05E045
:10307000144B9C420ED113681940154B03400B436F
:10308000136007E0029840682021014302984160E4
:10309000684645700020029908706846407806B07E
:1030A000F0BD0000FFFF3FFE082701400400008044
:1030B00000FFFF07001000B088020020400D030051
:1030C000004000B8002000B4FFFF7FFFFFFFFFFEBD
:1030D000FFFFBFFFF8B50500286881680427394065
:1030E00021D081681024890704D481686E4A0A407F
:1030F00022438260FFF7D0F90600286880683840D4
:1031000011D0FFF7C9F9801B0328F6D3286880681F
:103110003840F2D0A86D0443AC65E86D012101434D
:10312000E9650120F2BD0020F2BDF8B505000020E0
:10313000009028688168012421403FD110278168D0
:103140005A4A0A4032D18168574A0A402243826073
:103150005748006800020CD5564800685649FFF7EA
:1031600041F9401C01E00098401E009000980028A2
:10317000F9D1687E012821D0FFF78EF90600286872
:10318000006820401AD128688068204005D128684E
:103190008168454A0A4022438260FFF77DF9801B1F
:1031A0000328ECD3286800682040E8D1A86D0743C5
:1031B000AF65E86D0443EC650120F2BD0020F2BD6F
:1031C000F8B50600306882688168C90729D50221F0
:1031D0000A4026D110240125826805231340012BC3
:1031E00017D18268304B1340194381600320316846
:1031F0000860FFF751F9070030688068284010D058
:10320000FFF74AF9C01B0328F6D3306880682840CE
:10321000F2D0B06D0443B465F06D0543F56501204F
:10322000F2BD0020F2BD10B5846AA16D50220A40A3
:103230002CD1A06D802189000143A1652068FFF792
:10324000AAFB00281ED0A07E00281BD120680068A1
:10325000000717D520688168012049070BD4216831
:1032600049680C22914322685160A16D0D4A0A40C1
:103270001043A06506E0A16D20220A43A265E16D1E
:103280000843E065200000F062FD10BDA16DC90695
:1032900003D52000FEF7F0FC10BD216D496B884777
:1032A00010BD0000FFFEFFFFE8FFFF7F170000805A
:1032B0000827014088020020400D030080B5806A85
:1032C00000F04AFD01BD80B5806A816D40220A434D
:1032D0008265C16D04220A43C265FEF7CDFC01BDC3
:1032E00010B5040001D1012010BD3D20205C002854
:1032F00004D13C2160542000FDF72BFE22E03D214B
:10330000415C012901D00120704702213D228154F6
:10331000026801211C4B9A4205D08B079A4202D0C9
:103320001A4B9A4207D19368194A1A40062A07D0C5
:103330000B049A4204D002681268114300680160CD
:103340000020704702203D216054211D206800F0BC
:103350000DF90120482160543E2160543F21605402
:103360004021605441216054422160544321605403
:1033700044216054452160544621605447216054E3
:103380003D216054002010BD002C0140000400408D
:103390000700010004000E000020694608700125A6
:1033A000300006D0042E37D0082E3CD00C2E41D051
:1033B00047E02068C1682F4A0A40C260606AFDF792
:1033C000C2FE00223100206800F052F922682A482B
:1033D0002A492B4B9A4205D02A4B9A4202D02A4BBB
:1033E0009A4209D1136A0B4006D1136A034003D1F4
:1033F000536C264F1F4057642268136A194007D147
:10340000116A084004D110460068A84311460860BC
:10341000002E19D13E2028E02068C1681C4A0A40CD
:10342000C260A06ACBE72068C1681A4A0A40C2603D
:10343000E06AC4E72068C168174A0A40C260206B8E
:10344000BDE76846057011E0042E01D13F200CE075
:10345000082E01D1402008E00C2E01D1412004E0CB
:10346000102E01D1422000E0432025546846007808
:10347000F2BD0000FFFDFFFF440400001111000039
:10348000002C01400044014000480140FF7FFFFF45
:10349000FFFBFFFFFFF7FFFFFFEFFFFFF8B50400A3
:1034A0000026684606703C20205C012801D10220DD
:1034B000F2BD27003C3701253D7002203D22A0547B
:1034C00020688268284B13408360086802003FD060
:1034D00010283DD020283BD0302839D0402830D08B
:1034E000502820D0602825D0702806D02B03984281
:1034F00035D05B0098420AD02FE0CB684A688968D3
:10350000206800F0A4F820688168772208E0CB6882
:103510004A688968206800F09AF820688168AA03E0
:103520000A4382601BE0CA684968206800F064F8BA
:1035300050210EE0CA684968206800F06EF86021EA
:1035400007E0CA684968206800F056F8402100E0AA
:103550000100206800F073F801E0684605703D2026
:1035600025543E70FFF782FF8800CEFFF0B5066855
:103570001B4A1C4B8024E4051B4DA84203D0A042EB
:1035800001D0984208D17027BE4337004E683E43B1
:10359000A8420BD0A04209D0984207D0134B9842C2
:1035A00004D0904202D0134B984203D1104B3340C9
:1035B000CE681E4380239E434B69334303608B6870
:1035C000C3620B688362A84204D0904202D0094AC9
:1035D000904201D10969016301214161F0BD000000
:1035E0000044014000040040002C01400020004045
:1035F000FFFCFFFF0048014030B5036A046A012563
:10360000AC4304628469F025AC4312012243826119
:103610000A2293431943016230BD30B5036A102476
:10362000A34303628469036A0F4D254012032A43B2
:103630008261A022934309011943016230BD82686F
:10364000084B1340194307220A438260704730B584
:103650008468064D254029430A43190211438160BD
:1036600030BD00008FFFCFFFFF0FFFFFFF00FFFF08
:1036700010B5C906C90E036A01248C40A343036236
:10368000036A8A401A43026210BDFEE770B5050066
:1036900001D1012070BD28681449016014490160FE
:1036A00069684160A9688160FEF7F6FE072406009C
:1036B0002868C16821400AD0FEF7EEFE801B322840
:1036C000F6D32868C0682040F2D0032070BDE968B6
:1036D00002698A4201D0016101E0064901600020CF
:1036E00070BD04490068016000207047CCCC000028
:1036F00055550000AAAA0000002200BF094202D0CE
:10370000491E4254FCD1704710B50E4C21680E4A38
:103710000A4002432260610D884210D10B480068C4
:10372000062148430A49FEF75DFE401C00E0401EAA
:103730006169490503D50028F9D1032010BD002097
:1037400010BD000000700040FFF9FFFF880200205C
:1037500040420F00FEB5040000206A4610705F4D25
:103760002168890355D5019080204005296B0140CF
:1037700008D1296B01432963296B08400190019806
:103780000120019056480068A90D0143544801608A
:10379000FEF782FE060052480068C00505D4FEF719
:1037A0007BFE801B0328F6D323E0296DC020800018
:1037B00008404C4F00280ED0616A88420BD0286D1B
:1037C0003840296D802252020A432A65296D464AF3
:1037D0000A402A652865C0070FD5FEF75DFE060082
:1037E000286D800709D4FEF757FE801B3F498842A9
:1037F000F6D303206946087004E0286D0740606A2C
:10380000384328650198002803D0286B38490140C7
:1038100029632078C00705D5A86C03218843616817
:103820000143A9642078C00605D5A86C3149014040
:10383000A0680843A8642068800505D5A86C2E49B7
:10384000014060690843A8642068400505D5A86C5C
:103850002A490140A0690843A8642078800605D55C
:10386000A86C27490140E0680843A8648020C00193
:10387000216801400DD0A96C89008908E2690A43DA
:10388000AA64E1690204914203D1296882000A43D3
:103890002A60216889020DD5A96C1A4A0A40216A5A
:1038A0001143A964216A0202914203D1296882026C
:1038B0000A432A60216809050DD5A96C124A0A40FD
:1038C00021691143A9642169814204D128688021BA
:1038D00049020143296068460078FEBD0C10024091
:1038E00000700040FFFCFFFFFFFFFEFF8913000098
:1038F000FFFFFFEFFFF3FFFFFFFFF3FFFFFFCFFF30
:10390000FFCFFFFFFFFFBFFFFF3FFFFF30B501000D
:1039100080310A78012A01D1022030BD01220A70CB
:1039200024224A600268136814680125AC431460BD
:1039300000224266224C1C4000680460202048603F
:103940000A70002030BD70B504002500803528784D
:10395000012801D1022070BD012028702420686058
:1039600020680668026801239A4302602068826822
:10397000D200D208114317E070B50400250080354D
:103980002878012801D1022070BD01202870242050
:10399000686020680668026801239A430260206814
:1039A0008268084B134019438160200000F00CF836
:1039B00020680660202068600020287070BD00002C
:1039C000FFFFFFDFFFFFFFF1F8B50400606E002886
:1039D00002D10120012517E0206881680901490F03
:1039E00000918068410F00BF0CA600BF09A7785C5A
:1039F000C000715CFEF7E2FC05000098385CC00076
:103A00000099715CFEF7DAFC210068314D80088076
:103A1000F1BD0000010101030701000008040204D8
:103A200008010101F0B53C22825C012A01D102208B
:103A3000F0BD01223C23C25402233D2403550568F6
:103A40006E68AB68104CA54203D1104F37404E68EA
:103A50003E437027BE430F6837436F600568A54239
:103A600005D09407A54202D0094CA54204D1802478
:103A7000A34389681943A9603D21425400213C2297
:103A800081540020F0BD0000002C0140FFFF0FFF1B
:103A90000004004070B55F4C13795B1C23726172A7
:103AA000002306E01168C95C25000A35E9545B1C57
:103AB000DBB211798B42F5DB150006008A1C210070
:103AC0000831002000F04AF9010A22000A322B795D
:103AD000D15429796118C8722000083020602879F3
:103AE000001D207103CC03C670BD80B586B04A4866
:103AF000016802A800F080F94848008802A988807F
:103B000002A800900820694608716A46052104A8A9
:103B1000FFF7C0FF424804A90CC90CC0083800F0E8
:103B200002F807B000BDFEB53E4C61780291012954
:103B300001D1221D02E0822149006218CD231370B9
:103B4000CE215170022100250EE00668765DCD2E53
:103B500003D101990B70694609780668765DCFB28A
:103B6000D655491C6D1CEDB2CEB2961901964E1C6D
:103B70006F463E700679B542E7DB100001990B7085
:103B800069460A78CF218154521C2270D2B226484D
:103B90000299012904D1211DFCF7C8FA002005E093
:103BA000822149006118FCF7C1FA01206070F7BD5D
:103BB000E0B50A0001006846FFF76CFF1848694647
:103BC0000CC90CC00838FFF7AEFF07BDF8B5154C9F
:103BD0002578154E607801280BD1D5220121201DB2
:103BE000FFF78CFD2A00211D3000FCF79FFA002012
:103BF0000DE0822040002718D52201213800FFF770
:103C00007DFD2A0039003000FCF790FA0120607039
:103C1000F1BD0000C00200207802002096240008B8
:103C20005006002074000020C8030020010000207E
:103C3000F82212068918294A914200D2C80A704710
:103C400010B527490022D300C3180C681C604C68CB
:103C50005C600831521C012AF5DD10BDF0B585B05D
:103C60000400204E3000FFF7EBFF34801C4C250091
:103C700000F0FFF800282DD101A800210022002328
:103C800000278EC02000FFF7D1FF04001648FFF781
:103C9000CDFF022101910394001B401C0490694652
:103CA00001A800F047F9002814D10024E0003018E2
:103CB0000CC82900012000F0AFF800280AD108350F
:103CC000641C012CF2DD00F0E4F8002802D1012090
:103CD00005B0F0BD0020FBE700000000010001007E
:103CE00000F8000840060020FFFF000880B5002013
:103CF000FFF7B4FF02BDFEE770B5060000240F4DCC
:103D00002978002916D0FA208000FEF76BFB01000D
:103D10000B480068FEF766FBFEF739FD002809D165
:103D2000042E07D2002231000020C043FEF721FDFF
:103D3000AE6000E00124200070BD00BF7C020020C6
:103D4000880200207047FEE7704770477047704751
:103D500070477047704770477047FEE7F7B581B00E
:103D60000023190018006A4610801A0002980028E3
:103D70002ED06846808801000398834228D208012B
:103D80006C4620800298C05CC0B200090C00A4B24E
:103D9000240B444010A5684600882600F6B2760041
:103DA000AE5B464030016F4638800298C05C000729
:103DB000000F3700BFB23F0B47403A00684600880B
:103DC0001700FFB27F00ED5B454029005B1CD3E785
:103DD000080080B204B0F0BD0000B71F6E3FD920CC
:103DE000DC7E6B61B241055EB8FD0FE2D6C261DDDB
:103DF0006483D39C0ABCBDA30023DB435B1CCA5C69
:103E0000002AC254FAD1704708B4024B9C4608BC41
:103E10006047C0468D020020F1B50F0014001D0060
:103E20003C480078012801D10220F2BD0120394927
:103E3000087000264E60FA20800000F037F801007C
:103E400014D1380022002B000099012902D100F082
:103E500054F802E01100FFF7D7FFFA20800000F0CD
:103E600025F82D490A68009B9A430A6029490E707B
:103E7000F2BD00202B4980221206CB68134007D0E8
:103E8000294B0B60294B0B60C9680A4000D0012008
:103E90007047012080210906FFE71F4A13680B4382
:103EA00013601268114000D00020704770B5050003
:103EB000FEF7F2FA46191A4C2068C00305D5FEF742
:103EC000EBFAB042F8D3032070BD216813480840D4
:103ED00017492160002803D00E494860012070BDB9
:103EE000FEF7DAFA45192068400304D5FEF7D4FA44
:103EF000A842F8D3E7E7002070BD30B506490C684A
:103F0000012525430D600260BFF36F8F001D036024
:103F100030BD00002006002014200240FAC300003B
:103F2000102002400820024023016745AB89EFCDF5
:103F3000FBC30000F8B504000F00284800780128F2
:103F400001D10220F2BD01202449087000254D60F6
:103F5000FA208000FFF7AAFF01002CD10421616044
:103F6000216804290AD11B4800681B4901431948EC
:103F70000160FA208000FFF799FF1CE00021C9438F
:103F80003960A16826000C0000E0641CB168F2688A
:103F900089188C420AD22100706800F00FF8FA20CC
:103FA0008000FFF783FF0100EFD03C6009490A68F9
:103FB00002239A430A6009490D70F2BD0548026860
:103FC000074B1340C9001943064A0A430260704771
:103FD0000000000014200240040001002006002020
:103FE00007E0FFFF02000100FEE7FEE770477047B1
:103FF00080B500F023F801BD80B50B48FDF7E8F867
:1040000001BD80B50948FDF7E3F80948FDF7E0F880
:1040100001BD80B50748FEF765FE01BD80B50648C5
:10402000FCF7B0F901BD0000BC0400201805002019
:104030007405002058040020C8030020024841688D
:1040400002788918416070477C020020000000005F
:104050000000000000000000000000000000000060
:10406000000000000000000000000000010000004F
:104070000200000003000000040000000600000031
:1040800007000000080000000900000070B40123D0
:10409000002413E00168001D194202D04D46691842
:1040A000491E0C60091D121F042AFAD20D00960742
:1040B00001D50C80AD1C1A4000D02C700268001D88
:1040C000002AE7D170BC704710B507497944183110
:1040D000064C7C44163404E0081D0A688918884799
:1040E0000100A142F8D110BD08000000240000002A
:1040F0009DFFFFFF98030000C002002000000000A9
:10410000DBDBFFFFCE000000C60000000000002047
:10411000000000000000000000000000000000009F
:104120000100000002000000030000000400000085
:1041300000F00DF8002801D0FFF7C6FF00BF00BF58
:10414000002000BF00BFFDF70DF900F002F80120CC
:10415000704780B500F002F801BDFEE7074638461B
:1041600000F002F8FBE7FEE780B500BF00BF024A9F
:1041700011001820ABBEFBE72600020005480146EF
:1041800003B4684680F3098800BF00BF00BF00BFCA
:10419000FFF7CEFFA5EDF5FE014880470148004737
:1041A000D14100087D41000850413100FEE7FEE7A3
:1041B000FEE7FEE7FEE7FEE7FEE7FEE7FEE7FEE7D7
:1041C000FEE7FEE7FEE7FEE7FEE7FEE7FEE7FEE7C7
:1041D0007047F1000001C0000014F10001FF0FF270
:1041E000000064FC0000018100810081008100FA70
:1041F0000004A841000801F9000004FC003624F482
:104200000030B50B4A53688024E4021C435460EF2D
:10421000F3108372B640240D680560091D001D640B
:104220001EF9D11068C003FCD483F3108830BD00A0
:05423000BF1020024058
:040000050800417D31
:00000001FF
